:020000002628B0
:100008007E1480318B1E09280A2812280B1D0D2802
:100018000E28122884314724803124280B1F1528E4
:10002800162824282100911C1A281B28242820007F
:10003800911C1F28202824288331EC238031242870
:100048007E1009002728F801F901FA01FB01FC01DB
:100058002000AC01AD01AE01AF01B001B101B201A8
:10006800B301B401B501B6017E1020001F2BFC1DA1
:100078003E283F2868287C184228432868287C1D89
:10008800462847286828FC1A4A284B286828FC1C58
:100098004E284F28532884317124803156288431C2
:1000A800A0248031F4302000A0000130A100643089
:1000B800A2000030A3002830A9002908A400A50147
:1000C800A50A8231CB228031FC196B286C28932831
:1000D8007C196F2870289328FC1A73287428932891
:1000E800FC1C772878287C288331452380317F2899
:1000F8008431A5248031F4302000A0000130A10013
:100108006430A2000030A3002830A9002908A40008
:100118000230AA002A08A5008231CB2280310800CB
:100128002000AF1BA5282F08031DA6282E08031D95
:10013800A6282D08031DA6283D302C02031CA5283F
:10014800A628B5287C19A928AA28B5287C18AD287E
:10015800AE28B528FC1CB128B228B5288331452320
:1001680080312000AF1BC6282F08031DC7282E0882
:10017800031DC7282D08031DC72849302C02031C5E
:10018800C628C728DF287C1DCA28CB28DF287C186A
:10019800CE28CF28DF28FC1CD228D328DF2884319A
:1001A8007124803100302000AF000030AE000030F4
:1001B800AD000030AC00080022008E1423000E159C
:1001C8002000A701063083316723803120002108F1
:1001D800A6002008A50007302602D0300319250202
:1001E8000318F728F828FD28FF30A4002408B407CE
:1001F80001290130A4002408B4073408803A753E68
:10020800031C0729082910290A30A4002408B4006F
:10021800FC11A701A70A1D293408803A8A3E031851
:10022800162917291D29F630A4002408B400FC1546
:100238000D292708031921292229E62823000E1150
:1002480022008E1008007C1E2A292B294C29FC1C10
:100258002E292F296C29FC107C1D33293429372994
:100268008431A5248131FA302000A0000030A1009B
:100278006430A2000030A3002830A9002908A40097
:100288000330AA002A08A5008231CB2281316C29CB
:10029800FC184F2950296C29FC147C1D5429552918
:1002A8005829833145238131FA302000A0000030DD
:1002B800A1006430A2000030A3002830A90029085A
:1002C800A4000230AA002A08A5008231CB2281317D
:1002D800080023008C142000A70101308331672314
:1002E800813120002108A6002008A5000730260239
:1002F800D030031925020318822983298829FF3061
:10030800A4002408B2078C290130A4002408B207ED
:100318003208803A753E031C922993299B290A309A
:10032800A4002408B2007C12A701A70AA829320851
:10033800803A8A3E0318A129A229A829F630A400E8
:100348002408B2007C16982927080319AC29AD297E
:10035800712923008C10080022008E1423000E152A
:10036800063083316723813120002108A600200848
:10037800A50023000E1122008E100730200026024F
:10038800D030031925020318CA29CB29D029FF30F8
:10039800A4002408B507D4290130A4002408B5070F
:1003A8003508803A753E031CDA29DB29E1290A3031
:1003B800A4002408B500FC11ED293508803A8A3ECE
:1003C8000318E729E829ED29F630A4002408B50028
:1003D800FC15080001302000AC070030AD3D0030AE
:1003E800AE3D0030AF3D8231F622813164007C1C85
:1003F800FE29FF290F2A031022000C1E03140318DC
:10040800062A092A22000C160B2A22000C12843113
:100418007B248131292A8231992281310130F700E8
:100428007708FA0703307A02031C1B2A1C2A292A98
:10043800031022000C1E03140318232A262A220064
:100448000C16282A22000C12FA01080023008C142A
:10045800013083316723823120002108A60020085B
:10046800A50023008C10073020002602D030031985
:1004780025020318402A412A462AFF30A4002408EE
:10048800B3074A2A0130A4002408B3073308803A86
:10049800753E031C502A512A572A0A30A400240802
:1004A800B3007C12632A3308803A8A3E03185D2A17
:1004B8005E2A632AF630A4002408B3007C160800DC
:1004C8008431012482318B170B1727302000A000BC
:1004D8000430A10084319A248231EE302000A0003B
:1004E8000130A1008431942482318431BF248231C7
:1004F80023008E118C100E1124008C1021008C14F6
:1005080024000E1121000E158B12FC0122008E1200
:100518000E120E1021000E108031E0208231813140
:100528006D2182312000B601080022008E142300BC
:100538008E1507308331A72382317108F6007008C1
:10054800F50023008E1122008E104E3076022030E6
:10055800031975020318B12AB22AB72A0130F40028
:100568007408FB07C12A9C307602413003197502D2
:10057800031CBF2AC02AC12AFB0103307B02031CCB
:10058800C62AC72ACA2A84313724823108002000A3
:10059800A701EF2AA801DB2A84312724823164309D
:1005A800890BD42A01302000A6002608A8072408B1
:1005B8002802031CE02AE12AD02A82302000A60063
:1005C800DD30890BE52AA60BE52A00320130200030
:1005D800A6002608A70725082702031CF42AF52ADF
:1005E800CE2A0800FC1EF92AFA2A1E2B20003608FB
:1005F8000319FF2A002B032B0130B6021E2B7C1F88
:10060800062B072B1A2B22008E120630F10013300E
:10061800F000AE30890B0E2BF00B0E2BF10B0E2BCE
:1006280022000E127C157C13FC121E2B22008E1247
:100638007C11FC120800823164228331200095016C
:1006480041302000AB00EE30890B282BAB0B282B58
:1006580000007C18302B312B242B8131B0218331C1
:1006680080313B20833182312A2283318131272115
:100678008331803194208331843127248331242BA2
:10068800262800302000AF000030AE000030AD005A
:100698000030AC0022000E1606302000A1001330F6
:1006A800A000AD30890B562BA00B562BA10B562B57
:1006B800003222008E160A302000A0002008B60062
:1006C800FC167C1708002000A3002308A200A20D36
:1006D800A20D21001D0820002206833922062100D0
:1006E8009D001D1400320032000021009D149D1849
:1006F8007E2B7F2B7B2B1C082000A10021001B08D0
:100708002000A000080000302000AF000030AE003C
:100718000030AD000030AC0022000E160630F100AB
:100728001330F000AE30890B972BF00B972BF10BA1
:10073800972B22008E160A30F00070082000B600B1
:10074800FC167C170800F3007308F200F20DF20D96
:1007580021001D087206833972069D001D1400329F
:100768000032000021009D149D18BB2BBC2BB82B18
:100778001C08F1001B08F000080021001508C0390A
:1007880012389500EB3020009500EB30A2002208CB
:10079800BB000B118B16C330A0000430A1008431BC
:1007A8009A248331080022008C018E010F30210029
:1007B8008C000C308E000C3023008E0007308C002B
:1007C80024008C018E012100951722009D0108004C
:1007D800200091100130F8070030F93D003079020F
:1007E8000A3003197802031CFA2BFB2B002C8431E6
:1007F80057248331F801F90108008331D723843164
:1008080084318D2484318431BB248431843114248F
:1008180084318431852484318331C12384310800B3
:100828008D3020009B009A01911021009114C23054
:100838002000A0000430A100843194248431573072
:1008480020009C0008007E1C2A2C642C0310220027
:100858008C1E03140318312C342C22008C16362CD1
:1008680022008C1208007C1422000E148B16FC1C2B
:100878003E2C3F2C432C833187238431462C8431F2
:10088800AA24843108000B1120003B089500370882
:1008980038040319502C512C562C38088A00370874
:1008A8000A0084310800200039083A0403195D2C35
:1008B8005E2C632C3A088A0039080A008431080043
:1008C800031022008C1E031403186B2C6E2C2200BC
:1008D8008C16702C22008C12080022000E128E1624
:1008E8000A302000A0002008B600FC1608000310FB
:1008F8008B1E03140318812C832C8B16842C8B12CB
:100908000800403021009E009B019C0101309D00A1
:10091800080068302100990098012200960108001B
:1009280020002108BA002008B9000800200021088A
:10093800B8002008B70008007C1122000E128E12A1
:1009480008007C1522000E128E1608007C15220065
:100958000E128E1608003C34003400340034403443
:100968009C340034003420344E34003400341630C3
:1009780021009700080020001C1508000800080046
:020000040001F9
:08000000FF3FFF3FFF3FFF3F00
:04000E00E43FFF1EAE
:00000001FF
