:020000002D28A9
:100008007E1480318B1E09280A28142872140B1DAF
:100018000E280F281428F1178631242680312A2823
:1000280071170B1F182819282A282100911C1D2830
:100038001E282928F1162000911C23282428292865
:1000480071168631362680312A28F11571157E10F1
:1000580009002E28F001F101F201F901FA01FB0172
:10006800FC01FD0120308400003085001430863109
:100078009B26803134308400003085001F30863163
:100088009B2680317E1020003E2C0130F40074083D
:100098002000D207FB1B512852285D28500803195D
:1000A800562857285B2827170130D0025D28A71645
:1000B800FB177C1C6028612874287A1D6428652831
:1000C800702827160130B407003003180130B5072F
:1000D800003003180130B607A7158131942180310B
:1000E800791C772878289A281E3020005206031990
:1000F8007E287F28862827153C305206031D852830
:1001080086288A28A714863146268031200027149D
:1001180003107C1D03140030093DF400F40DF40DA8
:100128007C087406FB397406FC00BA282000A61760
:10013800F91C9F28A028BA280130F4007408CC07BD
:10014800261703304C02031CAA28AB28BA28031030
:100158007C1D03140030093DF400F40DF40D7C08F7
:100168007406FB397406FC00A616CC013C30520616
:10017800031DBF28C028C62885314F25803120009F
:100188002616D201A6150800003020003602031DED
:10019800D32800303502031DD32879303402031CDC
:1001A800D628D728FD282A157A1ADB28DC28FD2826
:1001B800AA14FA19E028E128FD282A14F91CE528D0
:1001C800E628FD28A917FB1FEA28EB28FD28291790
:1001D8007C1CEF28F028FD2884311424803103305A
:1001E800F5007508FD002000A9160330F500750814
:1001F800CE0000303602031D072900303502031DEA
:10020800072982303402031C0A290B292F292916B1
:100218007A1E0F2910292F29A915FA1D1429152925
:100228002F292915F91C19291A292F29A914FB1F67
:100238001E291F292F2929147C1C232924292F2909
:100248008431CD2480312000A8170030B40000305C
:10025800B5000030B60028170800791E3429352962
:10026800912922008E1423008E150630F7003030B5
:10027800890B3C29F70B3C290032073085311D25B5
:100288008131F700F80177082000D8007808D900F4
:1002980023008E1122008E10003020005902803079
:1002A80003195802031859295A29602923150130BE
:1002B800F7007708CB076F29A314003059028F3055
:1002C80003195802031C69296A296F292314FF306E
:1002D800F7007708CB074B08803A7B3E031C75294B
:1002E80076297F298631852681312000A21704309E
:1002F800F7007708CB004B08803A843E031885291D
:1003080086298F298631B226813120002217FC30B8
:10031800F7007708CB00A2167912200022160800F1
:10032800FA1C972998299F2920002E15FA1D9D2926
:100338009E299F29F129FA1CA229A329BA2920005C
:10034800AE14450846040319AA29AB29BA29013075
:10035800C5020030C63B2E1445084604031DB529C6
:10036800B629BA29AD17FA127A15FA1020002D17F6
:10037800FA1DBF29C029F12941084204031DC529D6
:10038800C629D629450846040319CB29CC29D329DF
:10039800FA16AD160130C5020030C63BDB292D1612
:1003A800FA12DB29AD150130C1020030C23B2D1510
:1003B800430844040319E129E229F1290130C30261
:1003C8000030C43BAD1443084404031DEC29ED2957
:1003D800F1292D147A137A16FA11AC170800F91EB0
:1003E800F629F729382A22008E140630F500303015
:1003F800890BFC29F50BFC29003223000E11210082
:100408000E1520000E1D092A0A2A102AA215FF30EF
:10041800F5007508CA07152A22150130F500750878
:10042800CA0722008E1020004A08803A753E031C35
:100438001E2A1F2A272A0A30F5007508CA00F91152
:10044800A2147915362A22144A08803A8A3E0318DB
:100458002E2A2F2A362AF630F5007508CA00F91513
:10046800A11779112117F9122000A1160800F91D0A
:100478003E2A3F2A5F2A20002C167919442A452A49
:100488005F2AAC15F91C492A4A2A5F2A2C15FB1F3A
:100498004E2A4F2A5F2AAC147A19532A542A5F2A03
:1004A8002C14FA18582A592A5F2AFD01FD0AAB179D
:1004B80084318B248231791D622A632A802A2000A4
:1004C8002B17FB1F682A692A802AAB16F9196D2A8F
:1004D8006E2A802A2B167A1A722A732A802AAB155A
:1004E800FA19772A782A802A0230F6007608FD0061
:1004F8002B158431AC2482312000AB140800791C00
:10050800862A872A9D2A20002615FB1D8C2A8D2ADB
:10051800922AA614863112268231C32A26147D080F
:100528000319972A982AC32AA5178431EA24823105
:10053800C32A20002517F91CA22AA32AC32A7D084A
:100548000319A72AA82AAF2AA5164E080319AD2A07
:10055800AE2AAF2A8D2A7D080319B32AB42AB82AED
:1005680025168431EA2482312000A5154E08031986
:10057800BE2ABF2AC32A2515853136258231200097
:10058800A514080001302000B9070030BA3D3F0823
:1005980040040319D02AD12AE02A0130BF020030D2
:1005A800C03BA4163F084004031DDB2ADC2AE02ACE
:1005B80024168631A1268231F91679176430200075
:1005C80039063A04031DE92AEA2AF82A863156260A
:1005D800823182318322823101302000B707003016
:1005E800B83DA415B901BA010A3037063804031D0D
:1005F800FE2AFF2A062B803149208231200024154B
:10060800B701B801A41408008531D92583318B17A7
:100618000B178531672583316530F5000630F60004
:10062800863194268331C630F5000230F6008631D3
:100638008D2683318631B72683318B120030FC003A
:100648000030FB000030FA000030F90022008E1262
:100658000E120E108E108C120C1200302000B400F6
:100668000030B5000030B600C501C601C301C401A1
:10067800C101C201BF01C001D101BD01BE01BB0161
:10068800BC01CF01A016080079184B2B4E2B220075
:100698000E14502B22000E107C1A532B562B2200BE
:1006A8008E14582B22008E107A1B5B2B5E2B220097
:1006B8000E16602B22000E12FA1A632B662B2200EC
:1006C8008E16682B22008E127C196B2B6E2B220043
:1006D8000C16702B22000C12FB1C732B742B772B1F
:1006E800200023178B167B1D7A2B7B2B802B8B12DC
:1006F8002000A31622008C12200023160800791F60
:10070800862B872BBB2B23008C1021008C142000F8
:100718008C1C8F2B902B962B21160130F500750819
:10072800C9079B2BA115FF30F5007508C9074908B3
:10073800803A753E031CA12BA22BAA2B0A30F50088
:100748007508C900F91321157A14B92BA1144908A1
:10075800803A8A3E0318B12BB22BB92BF630F5003C
:100768007508C900F91721147A10A0177913200009
:1007780020170800F91FC12BC22BD42B20002B14E3
:10078800FC18C72BC82BE82B7C10FC148531952549
:1007980083312000AA170230F6007608CE00E82B35
:1007A80020002A177A1CD92BDA2BE82BAA167C18DA
:1007B800DE2BDF2BE82B7C14FC108531952583314B
:1007C80020002A16CE01CE0AAA150800FA19ED2B28
:1007D800EE2B112C200032157A1AF32BF42B112C46
:1007E800B214FB1FF82BF92B112CFA157A11FA10F9
:1007F800FA127A1732141330C3000030C4000F30D5
:10080800C5000030C6000230C1000030C200003010
:10081800B4000030B5000030B6002000B117080061
:10082800FA19172C182C3B2C200031177A1A1D2C7A
:100838001E2C3B2CB116FB1F222C232C3B2CFA150B
:100848007A11FA10FA127A1731160930C3000030FB
:10085800C4000530C5000030C6000230C1000030B9
:10086800C2000030B4000030B5000030B6002000EF
:10087800B11508008331082384316400833148238B
:1008880084317918482C492C5E2C2000201683319D
:10089800832384318331BE2384318131F321843130
:1008A80082313B2284318131312184318031C82029
:1008B8008431412C2000A0158431AC248431412C92
:1008C8002D28F800230095186A2C6B2C662CF2133F
:1008D8008B1F6F2CF2178B137808F600F701760838
:1008E800230091007708920075089300151555307C
:1008F8009600AA3096009514F21B832C852C8B1732
:10090800862C8B1323001511200020150800FA1DD2
:100918008E2C8F2C952C2000AE178531952584318F
:10092800A92C7C1C982C992C9F2C20002E178431E4
:10093800CD248431A92C2000AE16FC1CA42CA52C97
:10094800A92C2E168631002684312000AE15080009
:10095800FA1CAF2CB02CB62C20002F16853195250B
:100968008431CA2C7C1CB92CBA2CC02C2000AF15A1
:100978008331EA238431CA2C20002F15FC1CC52C96
:10098800C62CCA2CAF148531AC25843120002F1415
:1009980008007A19D02CD12CE72C20003115FA1830
:1009A800D62CD72CE72CB114FB1FDB2CDC2CE72C26
:1009B800FA147A12FA117A13FA160F30C5000030B9
:1009C800C6003114FC122000B01708007B1AED2C69
:1009D800EE2C012D7D080319F22CF32CF72C2000A6
:1009E800B3150130FD021E302000BF000030C000EA
:1009F800FC1333158631A72684312000B314080070
:100A0800F70023001518092D0A2D052D2000A01424
:100A180023009518102D112D052D7708F500F601E6
:100A28007508910076089200151413082000201408
:100A38000800F6007608F500F50DF50D21001D08F3
:100A48007506833975069D001D140630890B2A2DFD
:100A5800003221009D149D18322D332D2F2D1C0896
:100A6800721508007B1A392D3A2D4C2D20004E089E
:100A780003193F2D402D432D33140130CE0282300F
:100A8800BF000030C000FC17B2178631A726853199
:100A9800200032170800200051080319542D552D45
:100AA800592DA8160130D102652D28165108031DAD
:100AB8005E2D5F2D652DFB15A8150330F300730817
:100AC800D100281508000130853104258531200022
:100AD800D8005808D900590A031D732D742D7B2D91
:100AE8002414F501F50A013084316524853120008C
:100AF800A317080021001508C03911389500833064
:100B0800200095008330F7007708D7000B118B166B
:100B1800BB30F5000630F600863194268531F01595
:100B280008007A13FA12FA11FA107A12FC1C9D2D99
:100B38009E2DA22D2000AF177A15A52D20002F1766
:100B48007A11FB130230F5007508D000AF160800C3
:100B58007A1AAF2DB02DB62D20003017FB1BB52DFE
:100B6800B62DBC2D2000B016791CBB2DBC2DC12D77
:100B780030167A117A167A13FA16B0150800220080
:100B88008C018E010F3021008C000C308E00083053
:100B980023008E0005308C0024008C018E0121007A
:100BA800951722009D01F21408008531C32585316F
:100BB80086317D2685318631AD2685318531ED2515
:100BC800853186317426853185317E2585317217C8
:100BD8000800633020009B009A01911021009114B5
:100BE800CA30F5000630F60086318D2685314D3045
:100BF80020009C00F11408007A19032E042E0F2EF1
:100C080020003015FB1F092E0A2E0F2EB0147A1261
:100C18007A157A13FA12200030140800FC1F152EDA
:100C2800162E1C2E2000B2168431EA248631212E7D
:100C3800200032168531362586312000B21508008D
:100C48000B112000570895005308540403192D2E42
:100C58002E2E342E701554088A0053080A00863147
:100C6800F0140800200091105508560403193D2E71
:100C78003E2E442EF01756088A0055080A00863181
:100C880070170800FB1D492E4A2E4E2E2000A8146E
:100C9800FB11542E200028140330F3007308FD00C4
:100CA800A71708007C18592E5A2E602E20002514EC
:100CB800FC1C5F2E602E632E2000A41779162417C3
:100CC8000800031022008C1E031403186C2E6F2ECC
:100CD80022008C16712E22008C122000A315080009
:100CE800503021009E009B019C011D309D00F21593
:100CF8000800783021009900980122009601F21628
:100D080008007914F9107C17FB152000D2012C1764
:100D1800080076082000D6007508D500F0160800EF
:100D280076082000D4007508D30070140800640009
:100D380080010131890B9C2E00347B12FB107B153E
:100D48002000331608007B16FB147B112000B31615
:100D580008000A3021009700721608007910F9146B
:100D68002000AC16080020001C1571140800200093
:100D7800331708008E34003480340034783400345B
:100D880020344E34A834613420344E3470160800B0
:100D9800033402340E340134023405340F340A3477
:080DA8000A34043482341E34C5
:020000040001F9
:08000000FF3FFF3FFF3FFF3F00
:04000E00DC3FFF1EB6
:00000001FF
