:020000002628B0
:100008007E1480318B1E09280A2812280B1D0D2802
:100018000E2812288431A724803124280B1F152884
:10002800162824282100911C1A281B28242820007F
:10003800911C1F28202824288431B72480312428A3
:100048007E1009002728F701F801F901FA01FB01E0
:1000580020308400003085001F3085310F25803125
:100068007E1020004E2B0130F10071082000B907E6
:10007800F91B3F28402849283D08031944284528EA
:1000880048280130BD024928F9177A1C4C284D2808
:100098005E28781D502851285B280130A0070030C1
:1000A80003180130A107003003180130A20781317D
:1000B80005218031771C6128622880281E302000A5
:1000C80039060319682869286F283C303906031D4A
:1000D8006E286F2872288431EB24803103107A1D32
:1000E80003140030093DF100F10DF10D7A08710695
:1000F800FB397106FA009D28F71C832884289D285F
:100108000130F10071082000B80703303802031CE1
:100118008E288F289D2803107A1D03140030093D6E
:10012800F100F10DF10D7A087106FB397106FA003C
:10013800B8013C3020003906031DA328A428A928AB
:100148008431712480312000B9010800771EAD2860
:10015800AE28042922008E1423008E150630F400E0
:100168003030890BB528F40BB528003207308331BD
:100178006E238031F400F50174082000C40075086E
:10018800C50023008E1122008E1000302000450289
:100198008030031944020318D228D328D828013004
:1001A800F4007408B707E528003045028F300319BA
:1001B8004402031CE028E128E528FF30F400740815
:1001C800B7073708803A7B3E031CEB28EC28F42855
:1001D8008531212580310430F40074082000B700EF
:1001E8003708803A843E0318FA28FB28032985310A
:1001F80035258031FC30F40074082000B7007712F0
:100208000800F81C082909290E29F81D0C290D29B0
:100218000E295629F81C11291229262920003108EF
:10022800320403191829192926290130B10200308E
:10023800B23B31083204031D222923292629F8124A
:100248007815F810F81D29292A29562920002D0883
:100258002E04031D302931293F293108320403199E
:10026800362937293D29F8160130B1020030B23B52
:100278004329F81243290130AD020030AE3B2F0864
:10028800300403194829492956290130AF020030A2
:10029800B03B2F083004031D5229532956297813DF
:1002A8007816F8110800F71E5A295B2996292200AA
:1002B8008E140630F2003030890B6029F20B602969
:1002C800003223000E1121000E1520000E1D6D298D
:1002D8006E297329FF30F2007208B60777290130BA
:1002E800F2007208B60722008E1020003608803A05
:1002F800753E031C8029812988290A30F20072087A
:10030800B600F711771595293608803A8A3E031802
:100318008E298F299529F630F2007208B600F71554
:100328007711F712080084314B2481318B170B1792
:10033800843123248131D230F2000430F300853136
:100348001B258131D630F2000130F30085311525A7
:1003580081318531322581318B120030FA0000302D
:10036800F9000030F8000030F70022008E120E125B
:100378000E108E108C120C1200302000A0000030DD
:10038800A1000030A200B101B201AF01B001AD017E
:10039800AE01AB01AC01BE01A901AA01A701A801E8
:1003A800BC01080001302000A5070030A63D2B083D
:1003B8002C040319E029E129EE290130AB020030B1
:1003C800AC3B2B082C04031DEA29EB29EE298531C7
:1003D8002A258131F7167717643020002506260470
:1003E800031DF729F829052A8431F6248131823141
:1003F8001322813101302000A3070030A43DA5015C
:10040800A6010A3023062404031D0B2A0C2A122AEB
:100418008031372081312000A301A4010800771C16
:10042800162A172A282AF91D1A2A1B2A1F2A843154
:10043800DF248231492A7B080319232A242A492ADE
:100448008331F9238231492AF71C2B2A2C2A492A7D
:100458007B080319302A312A382A20003B0803195F
:10046800362A372A382A1B2A7B0803193C2A3D2AB0
:10047800402A8331F923823120003B080319452A99
:10048800462A492A84310E248231080077184D2AD9
:10049800502A22000E14522A22000E107A1A552AC7
:1004A800582A22008E145A2A22008E10781B5D2AA0
:1004B800602A22000E16622A22000E12F81A652AF5
:1004C800682A22008E166A2A22008E127A196D2A4C
:1004D800702A22000C16722A22000C12F91C752AA6
:1004E800762A772A8B16791D7A2A7B2A7D2A8B12FF
:1004F8008C120800771F812A822AB02A23008C10C8
:1005080021008C1420008C1C8A2A8B2A902A013006
:10051800F2007208B507942AFF30F2007208B50796
:100528003508803A753E031C9A2A9B2AA22A0A306B
:10053800F2007208B500F7137814AF2A3508803A2C
:100548008A3E0318A82AA92AAF2AF630F2007208B0
:10055800B500F717781077130800F71DB42AB52AE5
:10056800CA2A7719B82AB92ACA2AF71CBC2ABD2A66
:10057800CA2A7819C02AC12ACA2AF818C42AC52A38
:10058800CA2AFB01FB0A833186238231771DCD2AD3
:10059800CE2AE12AF719D12AD22AE12A781AD52AAD
:1005A800D62AE12AF819D92ADA2AE12A0230F300F0
:1005B8007308FB008331B62382310800F819E52A55
:1005C800E62A062B781AE92AEA2A062BF91FED2AC9
:1005D800EE2A062BF8157811F810F8127817133050
:1005E8002000AF000030B0000F30B1000030B20082
:1005F8000230AD000030AE000030A0000030A10095
:100608000030A2000800F71F0A2B0B2B1A2BFA1830
:100618000E2B0F2B2A2B7A10FA1484315E24833187
:100628000230F30073082000BB002A2B781C1D2B16
:100638001E2B2A2B7A18212B222B2A2B7A14FA10FC
:1006480084315E2483312000BB01BB0A0800F50019
:1006580023009518302B312B2C2B00308B1B0130AD
:10066800F6008B137508F300F40173089100740801
:10067800920072089300151555309600AA3096001E
:1006880095147618482B4A2B8B174B2B8B1323006A
:1006980015110800813197218331640082314A2283
:1006A80083317718582B592B692B82317E2283315D
:1006B8008331072383318131572183318231B1223C
:1006C80083318031AA208331512B8331B623833182
:1006D800512B2628F3007308F200F20DF20D2100C9
:1006E8001D087206833972069D001D140630890B99
:1006F8007B2B003221009D149D18832B842B802B8B
:100708001C080800F81D892B8A2B8E2B84315E2447
:1007180083319D2B7A1C912B922B962B83319E2310
:1007280083319D2BFA1C992B9A2B9D2B8431C52440
:10073800833108007819A12BA22BB52BF818A52B0B
:10074800A62BB52BF91FA92BAA2BB52BF8147812B9
:10075800F8117813F8160F302000B1000030B200FD
:10076800FA120800F81CB92BBA2BBE2B84315E2470
:100778008331CD2B7A1CC12BC22BC62B8231E222AE
:100788008331CD2BFA1CC92BCA2BCD2B843196244F
:100798008331080021001508C039113895008330CD
:1007A800200095008330F4007408C3000B118B16E9
:1007B8005130F2000530F30085311B2583310800E4
:1007C80022008C018E010F3021008C000C308E002D
:1007D800083023008E0005308C0024008C018E0127
:1007E8002100951722009D010800791AFC2BFD2B8A
:1007F8000D2C7B080319012C022C042C0130FB0260
:100808001E302000AB000030AC00FA1385312E25D5
:1008180083310800791A112C122C222C20003B0855
:100828000319172C182C1A2C0130BB028230AB008C
:100838000030AC00FA1785312E25843108000130CC
:100848008431372484312000C4004408C500450A97
:10085800031D2F2C302C362CF201F20A0130833183
:100868002B2384310800F400230015183C2C3D2C60
:10087800382C9518402C412C382C7408F200F301C0
:100888007208910073089200151413080800833148
:10089800E423843185310825843185312625843146
:1008A8008431842484318531002584318331CE23F9
:1008B800843108007813F812F811F8107812FA1C2D
:1008C800662C672C692C78156A2C7811F91302307C
:1008D800F20072082000BD00080020003E0803193D
:1008E800762C772C832C0130BE023E08031D7D2C0C
:1008F8007E2C832CF9150330F0007008BE00080028
:10090800633020009B009A0191102100911450300F
:10091800F2000530F3008531152584314D30200073
:100928009C000800781A992C9A2C9E2CF91B9D2C57
:100938009E2CA22C771CA12CA22CA62C7811781600
:100948007813F81608000B112000430895003F089B
:1009580040040319B02CB12CB62C40088A003F087B
:100968000A0084310800200091104108420403194C
:10097800BE2CBF2CC42C42088A0041080A008431CE
:1009880008007819C82CC92CD12CF91FCC2CCD2CD7
:10099800D12C781278157813F81208000310220069
:1009A8008C1E03140318D92CDC2C22008C16DE2C88
:1009B80022008C120800FA1FE22CE32CE72C83316A
:1009C800F9238431EA2C84310E2484310800F91D7E
:1009D800EE2CEF2CF12CF911F52C0330F0007008F7
:1009E800FB0008007A18F92CFA2CFE2CFA1CFD2CB6
:1009F800FE2CFF2C77160800503021009E009B012A
:100A08009C011D309D000800783021009900980154
:100A1800220096010800640080010131890B102D25
:100A2800003473082000C2007208C100080073086F
:100A38002000C0007208BF0008007714F7107A176A
:100A4800F91508000A302100970008007912F910FA
:100A5800791508007916F9147911080020001C1579
:100A680008007710F71408008E34003480340034FE
:100A78000034753420344E34A834613420344E3474
:100A8800033405340234013402340F340A340A348E
:0C0A980004340E3482341E3408000800C0
:020000040001F9
:08000000FF3FFF3FFF3FFF3F00
:04000E00DC3FFF1EB6
:00000001FF
