:020000002628B0
:100008007E1480318B1E09280A2812280B1D0D2802
:100018000E2812288631F526803124280B1F152832
:10002800162824282100911C1A281B28242820007F
:10003800911C1F28202824288631AD2680312428A9
:100048007E1009002728F801F901FA01FB01FC01DB
:1000580049308400003085001730873149278031C6
:10006800A030840000308500103087314927803166
:100078007E102000072E2000BD01C5013430860007
:10008800003087000930B00000301E00B00B49284E
:100098000030BE000030BF000030C0005F08B00074
:1000A8003008C400E72820004408823181228031CA
:1000B80020002308C1002408C2002508C300C60187
:1000C8000330B0003008A00046088631562680313B
:1000D800343E86008701403F20004106031D7A28F0
:1000E800413F4206031D7A28423F4306031D7D28EF
:1000F8007E288C280130B00046083E3E86008701E5
:10010800300881070030C1000030C2000030C30051
:100118000130B0003008C60703304602031C95289A
:100128009628642843084204410403199C289D2802
:10013800E3280130B0003008BD07C8010330B00023
:100148003008A0004808863156268031343E8600A3
:100158008701403F2000B100413FB200423FB30059
:10016800330832043104031DBA28BB28D9284508AE
:10017800B000B101B2010330B3003308A000480851
:10018800863156268031343E8600870120003008AB
:10019800C03F3108C13F3208C23F48083E3E860092
:1001A80087018101810AC501E3280130B0003008C8
:1001B800C80703304802031CE228E328A2280430B9
:1001C800B0003008C4075F08103EB00000300318C4
:1001D8000130B1003108803A803C031DF528300811
:1001E8004402031CF828F92857282000C501C70134
:1001F80045083E3E8600870147083E3E840085014B
:1002080000080102031809290A290E294708B00025
:100218003008C5000130B0003008C7070330470276
:10022800031C17291829FC280330B0003008A00047
:100238004508863156268031343E86008701403F86
:100248002000D500413FD600423FD70002303D0292
:10025800031C2F29302934291030B0003008DF075B
:100268000800243086000030870010302000A300EA
:1002780000301E00A30B3D29B401340886313D2609
:1002880081312000A3002308B8003808031D4D2938
:100298004E294F299729B5013535243E8600870117
:1002A80001083806031D59295A2964290130A30079
:1002B8000314350D243E8600870123088107B80101
:1002C8000130A3002308B50708303502031C6D2947
:1002D8006E29502938080319722973299729B701FB
:1002E8003735243E860087010108031D7C297D29B6
:1002F8008D293808A3003735243E86008701230856
:1003080081000314370D243E860087018101810A8C
:1003180097290130A3002308B70708303702031CC8
:100328009629972974290130A3002308B4070830B7
:100338003402031CA029A1294129B801B6010314DC
:10034800380D243E860087010314360D243E8400B0
:100358008501000801020318B229B329B729360814
:10036800A3002308B8000130A3002308B60708300B
:100378003602031CC029C129A3293835243E86002A
:1003880087010108A3002308DF005F080319CD29AE
:10039800CE29D3295F0A031DD229D329D7291030A2
:1003A800A3002308DF0008001F308531A82581310C
:1003B80020002108B4002008B300B430340279309A
:1003C80003193302031CE929EA29392AB701370836
:1003D80086313D2681312000AE002E08B500350853
:1003E8005F060319F829F929012A5F08AE002E08CB
:1003F800A000370885315325813101302000AE0037
:100408002E08B70710303702031C0B2A0C2AEB29D9
:100418005508B0005608B1005708B2005F08AE0092
:100428002E08B600272A20003008A5003108A600AB
:100438003208A70036088331D223813104302000E6
:10044800AE002E08B6075F080C3EAE000030031859
:100458000130AF002F08803A803C031D352A2E0852
:100468003602031C382A392A172A080022008E145B
:1004780023000E152000A70106308531A8258231FA
:1004880020002108A6002008A50007302602D03049
:10049800031925020318512A522A572AFF30A400AB
:1004A8002408DC075B2A0130A4002408DC075C0868
:1004B800803A753E031C612A622A6A2A0A30A4001F
:1004C8002408DC00FC11A701A70A772A5C08803AF7
:1004D8008A3E0318702A712A772A0A30A400240851
:1004E800DC00FC15672A270803197B2A7C2A402A86
:1004F80023000E1122008E1008002000AF002F08E4
:10050800023E86313D2682312000A600A70126083A
:10051800A700A6012608A700A6012608AC00270800
:10052800AD00890D893B8909AE002F08013E86314F
:100538003D2682312000A600A7012608A700A601B3
:100548002608A9002708AA000030AA1BFF30AB0024
:100558002908AC072A08AD3D2B08AE3D2F08863187
:100568003D2682312000A600A701A8012608AC0775
:100578002708AD3D2808AE3D2C08A3002D08A4008F
:100588002E08A5000800003020005702031DD22ABB
:1005980000305602031DD22A3D305502031CD52ACD
:1005A800D62AE52A7C19D92ADA2AE52A7C18DD2AEE
:1005B800DE2AE52AFC1CE12AE22AE52A8531C9253A
:1005C8008231003020005702031DF02A0030560205
:1005D800031DF02A5B305502031CF32AF42A0A2B68
:1005E8007C1DF72AF82A0A2B7C18FB2AFC2A0A2BDE
:1005F800FC1CFF2A002B0A2B87311F278231003071
:100608002000D5000030D6000030D70008002300B5
:100618008C142000A70101308531A82583312000E2
:100628002108A6002008A50007302602D0300319AB
:1006380025020318202B212B262BFF30A400240889
:10064800DA072A2B0130A4002408DA075A08803A6E
:10065800753E031C302B312B392B0A30A40024089B
:10066800DA007C12A701A70A462B5A08803A8A3E6C
:1006780003183F2B402B462BF630A4002408DA0041
:100688007C16362B270803194A2B4B2B0F2B2300DC
:100698008C100800FC1D512B522B702B7C18552BED
:1006A800562B702B7C1D592B5A2B702BFC1A5D2B4B
:1006B8005E2B702BFC1C612B622B662B87311F274E
:1006C8008331692B87315B2783312000A001A00A81
:1006D8002830853123258331FC19732B742B902BFB
:1006E8007C19772B782B902BFC1A7B2B7C2B902B4F
:1006F800FC1C7F2B802B842B8531C9258331872BCC
:1007080087316027833102302000A6002608A00028
:10071800283085312325833108008731122783311A
:1007280001302000D507003003180130D60700300B
:1007380003180130D70785317E25833164007C1C7E
:10074800A62BA72BB72B031022000C1E031403188B
:10075800AE2BB12B22000C16B32B22000C128731C2
:1007680029278331D12B8431C12483310130F7000B
:100778007708FA0703307A02031CC32BC42BD12B4A
:10078800031022000C1E03140318CB2BCE2B2200BF
:100798000C16D02B22000C12FA0108002000AD0024
:1007A8002508A8002808A0002D0885315325833185
:1007B80020002508A8002608A9002708AA00083054
:1007C800AA36A90CA80C890BE42B2808AB002B0827
:1007D800AC002C08A8002808A0002D08013E85318F
:1007E8005325833120002508A8002608A9002708DA
:1007F800AA001030AA36A90CA80C890BFE2B2808D1
:10080800AB002B08AC002C08A8002808A0002D0875
:10081800023E853153258331080022008E142300BF
:100828000E1506308531A825843120002108A60040
:100838002008A50023000E1122008E10073020008A
:100848002602D0300319250203182B2C2C2C312C0E
:10085800FF30A4002408DD07352C0130A40024084B
:10086800DD075D08803A753E031C3B2C3C2C422C6E
:100878000A30A4002408DD00FC114E2C5D08803AE3
:100888008A3E0318482C492C4E2CF630A400240824
:10089800DD00FC15080023008C1401308531A825E3
:1008A800843120002108A6002008A50023008C1010
:1008B800073020002602D030031925020318652CC2
:1008C800662C6B2CFF30A4002408DB076F2C01304A
:1008D800A4002408DB075B08803A753E031C752CCE
:1008E800762C7C2C0A30A4002408DB007C12882C8F
:1008F8005B08803A8A3E0318822C832C882CF630B9
:10090800A4002408DB007C16080086316C2684319C
:100918008B170B1787313B278431D5302000A00077
:100928000630A10087315527843191302000A0007E
:100938000330A10087314F27843187317B278431E9
:1009480023008E118C100E1124008C1021008C14A1
:1009580024000E1121000E158B12FC0122008E12AC
:100968000E120E1021000E1082313A22843183318A
:100978000B2384312000DE01080022008E1423009E
:100988008E1507308631222684317108F6007008EA
:10099800F50023008E1122008E104E307602203092
:1009A800031975020318D92CDA2CDF2C0130F40056
:1009B8007408FB07E92C9C30760241300319750254
:1009C800031CE72CE82CE92CFB0103307B02031CF9
:1009D800EE2CEF2CF22C8631E526843108007C1EA3
:1009E800F62CF72C0D2DFC1CFA2CFB2C222DFC10C0
:1009F8007C1DFF2C002D032D8731602784310330A7
:100A08002000A6002608A00028308531232584313F
:100A1800222DFC18102D112D222DFC147C1D152DB6
:100A2800162D192D8531C925843102302000A600E4
:100A38002608A000283085312325843108002000AD
:100A4800A300A4014C2DA501352D8631D52685316D
:100A5800F0300032890B2D2D01302000A100210833
:100A6800A50723082502031C3A2D3B2D292D033009
:100A78002000A2000830A1007730890B412DA10B7E
:100A8800412DA20B412D01302000A1002108A4070F
:100A980020082402031C512D522D272D0800200068
:100AA800A30023009518592D5A2D552D00308B1B66
:100AB80001302000A4008B132308A100A201210803
:100AC8002300910020002208230092002000200823
:100AD80023009300151555309600AA3096009514FA
:100AE80020002418782D7A2D8B177B2D8B1323004B
:100AF80015110800FC1E812D822DA72D20005E08EF
:100B08000319872D882D8B2D0130DE02A72D7C1F20
:100B18008E2D8F2DA32D22008E126630F100763097
:100B2800F000C130890B962DF00B962DF10B962D08
:100B3800000022000E127C157C13FC12A72D220047
:100B48008E127C11FC1208002000A3002308A200CA
:100B5800A20DA20D21001D082000220683392206BD
:100B680021009D001D140630890BB82D003221008C
:100B78009D149D18C02DC12DBD2D1C082000A1005D
:100B880021001B082000A000080000302000D5002C
:100B98000030D6000030D70022000E166630200044
:100BA800A1007630A000C130890BD82DA00BD82D1C
:100BB800A10BD82D22008E1614302000A00020088A
:100BC800DE00FC167C17080000302000D50000303D
:100BD800D6000030D70022000E166630F1007630BD
:100BE800F000C130890BF62DF00BF62DF10BF62D28
:100BF800000022008E161430F00070082000DE007D
:100C0800FC167C1708008431892486318131D8216B
:100C180086317C18102E112E0A2E8431112486312B
:100C280083314E23863184314F2486318431F32435
:100C380086318231C72286310A2E2628F3007308AE
:100C4800F200F20DF20D21001D08720683397206BA
:100C58009D001D140630890B2F2E003221009D1493
:100C68009D18372E382E342E1C08F1001B08F00072
:100C780008002000A20023001518432E442E3F2E02
:100C88009518472E482E3F2E20002208A000A101CB
:100C98002008230091002000210823009200151449
:100CA800130808002000A300A201231C5C2E5D2E5F
:100CB800612E2008A1002108A2070310A00D03102F
:100CC800A30C2308031D692E6A2E592E220808003A
:100CD80086319826863187314227863187316A27BF
:100CE800863187316E2786318731332786318631C1
:100CF800C2268631863182268631080021001508F1
:100D0800C039123895009C30200095009C30A20014
:100D18002208E4000B118B167F30A0000730A100D9
:100D2800873155278631080022008C018E010F304B
:100D380021008C000C308E000C3023008E00073010
:100D48008C0024008C018E012100951722009D0142
:100D58000800200091100130F8070030F93D0030FC
:100D68007902643003197802031CBB2EBC2EC12EF5
:100D7800873105278631F801F9010800F93020008C
:100D88009B009A019110210091147E302000A00050
:100D98000730A10087314F2786314E3020009C0054
:100DA80008007E1CD82E122F031022008C1E03145C
:100DB8000318DF2EE22E22008C16E42E22008C125D
:100DC80008007C1422000E148B16FC1CEC2EED2E51
:100DD800F12E8531E8258631F42E87316527863155
:100DE80008000B11200064089500600861040319CD
:100DF800FE2EFF2E042F61088A0060080A00873142
:100E0800080020006208630403190B2F0C2F112F10
:100E180063088A0062080A0087310800031022006C
:100E28008C1E03140318192F1C2F22008C161E2F3A
:100E380022008C12080022000E128E161430200098
:100E4800A0002008DE00FC16080003108B1E031407
:100E580003182F2F312F8B16322F8B12080040309A
:100E680021009E009B019C017D309D00080081317E
:100E78003521873180313F208731080078302100C3
:100E88009900980122009601080064008001013150
:100E9800890B4A2F003420002108E3002008E200D3
:100EA800080020002108E1002008E00008007C116B
:100EB80022000E128E1208007C1522000E128E16C9
:100EC80008007C1522000E128E160800163021002C
:100ED8009700080082302200970008003C34003454
:100EE800003440349C34003420344E340034200024
:080EF8001C15080008000800A9
:020000040001F9
:08000000FF3FFF3FFF3FFF3F00
:04000E00FC3FFF1E96
:00000001FF
