:0400000080312D28F6
:100008007E1480318B1E09280A28142872140B1DAF
:100018000E280F281428F11786312A2680312A281D
:1000280071170B1F182819282A282100911C1D2830
:100038001E282928F1162000911C23282428292865
:10004800711686313C2680312A28F11571157E10EB
:10005800090080312F28F001F101F201F901FA01BC
:10006800FB01FC01FD0120308400003085001430C4
:100078008631A126803134308400003085001F305D
:100088008631A12680317E1020008431422C013037
:10009800F40074082000D207FB19532854285F285D
:1000A80050080319582859285D2827170130D0020D
:1000B8005F28A716FB157B1E6228632876287A1D01
:1000C80066286728722827160130B40700300318FD
:1000D8000130B507003003180130B607A715813184
:1000E80098218031791C79287A289D281E30200093
:1000F8005206031980288128882827153C30520683
:10010800031D872888288C28A71486314C2680311F
:100118002000271403107B1F03140030093DF4004E
:10012800F40EF40DF40D7B087406BF397406FB0059
:10013800BE282000A617F91CA228A328BE28013033
:10014800F4007408CC07261703304C02031CAD28B2
:10015800AE28BE2803107B1F03140030093DF400AD
:10016800F40EF40DF40D7B087406BF397406FB0019
:10017800A616CC013C305206031DC328C428CA2841
:1001880085315425803120002616D201A615080095
:10019800003020003602031DD72875303502031DB4
:1001A800D72801303402031CDA28DB2801292A1554
:1001B8007A1ADF28E0280129AA14FA19E428E52880
:1001C80001292A14F91CE928EA280129A917FB1D85
:1001D800EE28EF28012929177B1EF328F428012986
:1001E8008431182480310330F5007508FD002000A3
:1001F800A9160330F5007508CE0000303602031D3D
:100208000B2975303502031D0B2914303402031CE9
:100218000E290F29332929167A1E1329142933295F
:10022800A915FA1D1829192933292915F91C1D2979
:100238001E293329A914FB1D22292329332929140E
:100248007B1E2729282933298431D2248031200094
:10025800A8170030B4000030B5000030B6002817E9
:100268000800791E38293929952922008E1423007F
:100278008E150630F7003030890B4029F70B4029DE
:1002880000320730853122258131F700F8017708DF
:100298002000D8007808D90023008E1122008E1083
:1002A80000302000590280300319580203185D29D4
:1002B8005E29642923150130F7007708CB077329D5
:1002C800A314003059028F3003195802031C6D29FA
:1002D8006E2973292314FF30F7007708CB074B08E2
:1002E800803A7B3E031C79297A29832986318B261B
:1002F80081312000A2170430F7007708CB004B08A3
:10030800803A843E031889298A2993298631B82698
:10031800813120002217FC30F7007708CB00A216A5
:100328007912200022160800FA1C9B299C29A3296F
:1003380020002E15FA1DA129A229A329F529FA1CA6
:10034800A629A729BE292000AE144508460403198A
:10035800AE29AF29BE290130C5020030C63B2E1494
:1003680045084604031DB929BA29BE29AD17FA1252
:100378007A15FA1020002D17FA1DC329C429F5296A
:1003880041084204031DC929CA29DA294508460437
:100398000319CF29D029D729FA16AD160130C5027D
:1003A8000030C63BDF292D16FA12DF29AD150130C2
:1003B800C1020030C23B2D15430844040319E52946
:1003C800E629F5290130C3020030C43BAD144308C7
:1003D8004404031DF029F129F5292D147A137A16FE
:1003E800FA11AC170800F91EFA29FB293C2A220049
:1003F8008E140630F5003030890B002AF50B002AE0
:10040800003223000E1121000E1520000E1D0D2AAA
:100418000E2A142AA215FF30F5007508CA07192AF2
:1004280022150130F5007508CA0722008E10200039
:100438004A08803A753E031C222A232A2B2A0A30AE
:10044800F5007508CA00F911A21479153A2A221480
:100458004A08803A8A3E0318322A332A3A2AF63062
:10046800F5007508CA00F915A11779112117F912B5
:100478002000A1160800F91D422A432A632A2000F9
:100488002C167919482A492A632AAC15F91C4D2AD1
:100498004E2A632A2C15FB1D522A532A632AAC14B0
:1004A8007A19572A582A632A2C14FA185C2A5D2AC2
:1004B800632AFD01FD0AAB17843190248231791D2E
:1004C800662A672A842A20002B17FB1D6C2A6D2AAE
:1004D800842AAB16F919712A722A842A2B167A1AD9
:1004E800762A772A842AAB15FA197B2A7C2A842A49
:1004F8000230F6007608FD002B158431B1248231D4
:100508002000AB140800791C8A2A8B2AA12A200013
:100518002615FB1C902A912A962AA614863118269D
:100528008231C72A26147D0803199B2A9C2AC72AC8
:10053800A5178431EF248231C72A20002517F91C1A
:10054800A62AA72AC72A7D080319AB2AAC2AB32AE8
:10055800A5164E080319B12AB22AB32A912A7D0892
:100568000319B72AB82ABC2A25168431EF24823108
:100578002000A5154E080319C22AC32AC72A251523
:1005880085313B2582312000A51408000130200068
:10059800B9070030BA3D3F0840040319D42AD52AC8
:1005A800E42A0130BF020030C03BA4163F084004D3
:1005B800031DDF2AE02AE42A24168631A726823181
:1005C800F91679176430200039063A04031DED2A1C
:1005D800EE2AFC2A86315C268231823187228231DA
:1005E80001302000B7070030B83DA415B901BA01A1
:1005F8000A3037063804031D022B032B0A2B8031DF
:100608004B20823120002415B701B801A41408003A
:100618008531DF2583318B170B1785316C258331A5
:100628006B30F5000630F60086319A268331CA30E1
:10063800F5000230F6008631932683318631BD26D7
:1006480083318B120030FC000030FB000030FA00D0
:100658000030F90022008E120E120E108E108C122D
:100668000C1200302000B4000030B5000030B60095
:10067800C501C601C301C401C101C201BF01C00156
:10068800D101BD01BE01BB01BC01CF01A01608000C
:1006980079184F2B522B22000E14542B22000E10C7
:1006A800FB1B572B5A2B22008E145C2B22008E101A
:1006B8007A1B5F2B622B22000E16642B22000E126F
:1006C800FA1A672B6A2B22008E166C2B22008E12C8
:1006D8007B1B6F2B722B22000C16742B22000C1222
:1006E800FA1F772B782B7B2B200023178B167B1C6C
:1006F8007E2B7F2B842B8B122000A31622008C12BA
:10070800200023160800791F8A2B8B2BBF2B230070
:100718008C1021008C1420008C1C932B942B9A2B6A
:1007280021160130F5007508C9079F2BA115FF3068
:10073800F5007508C9074908803A753E031CA52BC2
:10074800A62BAE2B0A30F5007508C900F913211540
:100758007A14BD2BA1144908803A8A3E0318B52B98
:10076800B62BBD2BF630F5007508C900F917211412
:100778007A10A0177913200020170800F91FC52B3D
:10078800C62BD82B20002B14FB1ACB2BCC2BEC2BF5
:100798007B12FB168531B12583312000AA17023060
:1007A800F6007608CE00EC2B20002A177A1CDD2BE9
:1007B800DE2BEC2BAA167B1AE22BE32BEC2B7B16F9
:1007C800FB128531B125833120002A16CE01CE0ACD
:1007D800AA150800FA19F12BF22B152C2000321556
:1007E8007A1AF72BF82B152CB214FB1DFC2BFD2BBA
:1007F800152CFA157A11FA10FA127A1732147C307D
:10080800C3000030C4007830C5000030C600023094
:10081800C1000030C2000030B4000030B500003024
:10082800B6002000B1170800FA191B2C1C2C3F2C0D
:10083800200031177A1A212C222C3F2CB116FB1DCF
:10084800262C272C3F2CFA157A11FA10FA127A174F
:1008580031161330C3000030C4000F30C50000301B
:10086800C6000230C1000030C2000030B4000030C1
:10087800B5000030B6002000B115080083310C2304
:100888008431640083314C23843179184C2C4D2CED
:10089800622C200020168331872384318331C223C0
:1008A80084318131F721843182313F228431813191
:1008B800352184318031CC208431452C2000A0158D
:1008C8008431B1248431452C80312D28F80023004F
:1008D80095186F2C702C6B2CF2138B1F742CF2173D
:1008E8008B137808F600F701760823009100770843
:1008F800920075089300151555309600AA30960099
:100908009514F21B882C8A2C8B178B2C8B132300A5
:100918001511200020150800FA1D932C942C9A2CF0
:100928002000AE178531B1258431AE2C7B1E9D2C5D
:100938009E2CA42C20002E178431D2248431AE2C76
:100948002000AE16FB1EA92CAA2CAE2C2E16863122
:10095800062684312000AE150800FA1CB42CB52CEC
:10096800BB2C20002F168531B1258431CF2C7B1E5E
:10097800BE2CBF2CC52C2000AF158331EE2384314B
:10098800CF2C20002F15FB1ECA2CCB2CCF2CAF143C
:100998008531C825843120002F1408007A19D52CF8
:1009A800D62CEC2C20003115FA18DB2CDC2CEC2C86
:1009B800B114FB1DE02CE12CEC2CFA147A12FA117C
:1009C8007A13FA167830C5000030C60031147C104E
:1009D8002000B01708007B19F22CF32C062D7D0897
:1009E8000319F72CF82CFC2C2000B3150130FD025C
:1009F8001E302000BF000030C0007C113315863146
:100A0800AD2684312000B3140800F7002300151820
:100A18000E2D0F2D0A2D2000A01423009518152D3A
:100A2800162D0A2D7708F500F6017508910076084D
:100A3800920015141308200020140800F600760808
:100A4800F500F50DF50D21001D08750683397506AD
:100A58009D001D140630890B2F2D003221009D1496
:100A68009D18372D382D342D1C08721508007B1958
:100A78003E2D3F2D512D20004E080319442D452DA4
:100A8800482D33140130CE028230BF000030C00040
:100A98007C15B2178631AD26853120003217080043
:100AA800200051080319592D5A2D5E2DA816013022
:100AB800D1026A2D28165108031D632D642D6A2D55
:100AC800FB14A8151E30F3007308D1002815080080
:100AD80001308531092585312000D8005808D90012
:100AE800590A031D782D792D802D2414F501F50A56
:100AF800013084316A2485312000A31708002100C1
:100B08001508C039113895008330200095008330CE
:100B1800F7007708D7000B118B16C130F5000630A7
:100B2800F60086319A268531F015080022008C01DE
:100B38008E010F3021008C000C308E00083023000D
:100B48008E0005308C0024008C018E012100951741
:100B580022009D019E01F21408007A13FA12FA117C
:100B6800FA107A12FB1EB92DBA2DBE2D2000AF1730
:100B78007A15C12D20002F177A11FB110230F500CC
:100B88007508D000AF1608007A1ACB2DCC2DD22DBF
:100B980020003017FB19D12DD22DD82D2000B016EA
:100BA800791CD72DD82DDD2D30167A117A167A13A7
:100BB800FA16B015080085319A25853186318326C5
:100BC80085318631B32685318531F32585318631E6
:100BD8007A2685318531832585317217080063307F
:100BE80020009B009A01911021009114D030F5004B
:100BF8000630F6008631932685314D3020009C0062
:100C0800F11408007A19092E0A2E152E2000301525
:100C1800FB1D0F2E102E152EB0147A127A157A138A
:100C2800FA122000301408007C1D1B2E1C2E222EC8
:100C38002000B2168431EF248631272E2000321688
:100C480085313B2586312000B21508000B112000A4
:100C580057089500530854040319332E342E3A2E9E
:100C6800701554088A0053080A008631F0140800E9
:100C780020009110550856040319432E442E4A2E7D
:100C8800F01756088A0055080A00863170170800C0
:100C9800FB1C4F2E502E542E2000A814FB105A2E49
:100CA800200028140330F3007308FD00A71708007C
:100CB8007B1A5F2E602E662E20002514FB1E652EE3
:100CC800662E692E2000A417791624170800031031
:100CD80022008C1E03140318722E752E22008C1607
:100CE800772E22008C122000A31508005030210016
:100CF8009E009B019C011D309D00F2150800783074
:100D080021009900980122009601F2160800791432
:100D1800F910FC14FB142000D2012C1708007608E7
:100D28002000D6007508D500F016080076082000C7
:100D3800D4007508D30070140800640080010131E4
:100D4800890BA22E00347B11FA137B142000331672
:100D580008007B15FA177B102000B31608000A302C
:100D680021009700721608007910F9142000AC16BB
:100D7800080020001C157114080020003317080013
:100D88008E340034803400340034753420344E34CA
:100D9800A834613420344E34701608001E340234EE
:100DA800013402340F3478340A340A3404340E34EB
:040DB80082341E342F
:020000040001F9
:08000000FF3FFF3FFF3FFF3F00
:04000E00DC3FFF1EB6
:00000001FF
