:020000001628C0
:100008007E1480318B1A0B1D0B28A82314280B1F74
:1000180014282100911C14282000911C1428CE2398
:100028007E1009001728FB01F601F701F801F90114
:10003800FA0120308400003085001F3020247E1013
:1000480020008C2B0130F10071082000BE07F81940
:1000580034283C08031933280130BC023428F81529
:10006800781E4328771D42280130A0070030031866
:100078000130A107003003180130A2070621761CC1
:100088005E281E3020003E0603194E283C303E06EE
:10009800031D4F28FA230310781F03140030093D6D
:1000A800F100F10EF10DF10D78087106BF397106F6
:1000B800F8007828F61C78280130F1007108200033
:1000C800B80703303802031C78280310781F03147C
:1000D8000030093DF100F10EF10DF10D78087106BF
:1000E800BF397106F800B8013C3020003E06031DF8
:1000F80008005F232000BE010800761E08002200C9
:100108008E1423008E150630F4003030890B8A28AF
:10011800F40B8A2800320730DD22F400F501740858
:100128002000C4007508C50023008E1122008E101F
:100138000030200045028030031944020318A62825
:100148000130AE28003045028F3003194402031CE9
:10015800B128FF30F4007408B7073708803A7B3EAF
:10016800031CBC2819240430F40074082000B700CC
:100178003708803A843E0318C7284D24FC30F40021
:1001880074082000B7007612080000302000220210
:10019800031DD4282A302102031DD428313020021F
:1001A8000318771AE728F71DF61CE728F819781EB0
:1001B800E7286B220330F2007208FA000330F200DD
:1001C80072082000BA0000302202031DF1282A30EC
:1001D8002102031DF12844302002031C0800771E69
:1001E8000800F71D0800F61C0800F81D0800781E16
:1001F80008001C2300302000A0000030A1000030BF
:10020800A2000800F71C0A29F7190800F71C1C2986
:1002180020003108320403191C290130B1020030D2
:10022800B23B31083204031D1C29F7127715F71069
:10023800F71D080020002D082E04031D2F29310862
:10024800320403192D29F7160130B1020030B23BF0
:100258003329F71233290130AD020030AE3B2F08A5
:100268003004031908000130AF020030B03B2F08FA
:100278003004031D080077137716F71108000B24C4
:100288008B170B179A23DA30F2000330F3002C2473
:10029800AD30F2000130F30026244A248B120030DE
:1002A800F9000030F8000030F7000030F6002200B6
:1002B8008E120E120E108E108C120C1200302000AE
:1002C800A0000030A1000030A200B101B201AF01CE
:1002D800B001AD01AE01AB01AC01BD01A901AA019C
:1002E800A701A801BB010800F61E080022008E1411
:1002F8000630F2003030890B7F29F20B7F2900325B
:1003080023000E1121000E1520000E1D8D29FF302F
:100318008E290130F2007208B60722008E102000E4
:100328003608803A753E031CA0290A30F20072088C
:10033800B600F6117615AB293608803A8A3E0318BE
:10034800AB29F630F2007208B600F6157611F612EF
:10035800080001302000A5070030A63D2B082C041A
:100368000319BF290130AB020030AC3B2B082C0429
:10037800031DBF294224F61676176430200025068F
:100388002604031DD02938248A2201302000A3071F
:100398000030A43DA501A6010A3023062404031D4C
:1003A800080026202000A301A4010800761CDF29EC
:1003B80022000E14E12922000E10F81FE62922005F
:1003C8008E14E82922008E10771FED2922000E16C0
:1003D800EF2922000E12F71EF42922008E16F629A4
:1003E80022008E12781FFB2922000C16FD292200FC
:1003F8000C12F71B8B16781C08008B128C12080045
:10040800761F080023008C1021008C1420008C1CFF
:100418000F2A0130102AFF30F2007208B50735089C
:10042800803A753E031C1F2A0A30F2007208B50094
:10043800F61377142A2A3508803A8A3E03182A2A9E
:10044800F630F2007208B500F61777107613080038
:10045800F500230095182D2A7B108B1B7B148B131A
:100468007508F300F40173082300910074089200E2
:1004780072089300151555309600AA309600951409
:100488007B1C482A8B17492A8B1323001511080057
:10049800F7190800771A0800F81D0800F7157711F2
:1004A800F710F71277177C302000AF000030B0004B
:1004B8007830B1000030B2000230AD000030AE003C
:1004C8000030A0000030A1000030A2000800F71999
:1004D8000800771A0800F81D0800F7157711F710BB
:1004E800F712771713302000AF000030B0000F303C
:1004F800B1000030B2000230AD000030AE00003074
:10050800A0000030A1000030A2000800761C9A2A42
:10051800F818932A952A20003A0803199F2A3224AA
:1005280008007A08031908006E230800F61C080062
:100538007A08031D8F2A7A080319A32A6E2320003C
:100548003A08031908007D230800F6197619B52A18
:10055800F618F81DB52A771DF718B52AFA01FA0A10
:10056800B623761D0800F81D0800F6190800771A4A
:100578000800F71908000230F3007308FA00C223D4
:100588000800F61FD22AF81A08007812F8162E2347
:100598000230F30073082000BA000800771C080036
:1005A800781A08007816F8122E232000BA01BA0A21
:1005B8000800F3007308F200F20DF20D21001D0887
:1005C8007206833972069D001D140630890BEA2ACB
:1005D800003221009D149D18EF2A1C0808002200F3
:1005E8008C018E010F3021008C000C308E000830F9
:1005F80023008E0005308C0024008C018E01210020
:10060800951722009D01080021001508C0391138EE
:1006180095008330200095008330F4007408C300EF
:100628000B118B166930F2000430F3002C240800FB
:1006380077190800F7180800F81D0800F714771252
:10064800F7117713F71678302000B1000030B200A8
:10065800791008007713F712F711F7107712F81EC0
:10066800372B7715382B7711F8110230F200720802
:100678002000BC000800F40023001518402B951832
:10068800402B7408F200F30172089100730892007D
:10069800151413080800633020009B009A0191107C
:1006A800210091146830F2000430F30026244D3004
:1006B80020009C00080020003D080319652B01302C
:1006C800BD023D08031D0800F8141E30F000700834
:1006D800BD000800781908007A080319752B013045
:1006E800FA021E302000AB000030AC00791146241D
:1006F80008007819080020003A080319852B0130F2
:10070800BA028230AB000030AC00791546240800EC
:100718004321942B0422C5227821A9228120C920B3
:100728006400DA21761C8E2BC223942B01303F23E0
:100738002000C4004408C500450A031D0800F20152
:10074800F20A01302C2208000B1120004308950002
:100758003F0840040319080040088A003F080A00BF
:1007680083310800F71DBA2B2E230800781EBE2BF4
:100778001C230800F81E0800F1230800F71CC62BEC
:100788002E230800781ECA2B4C220800F81E0800E9
:10079800E6230800200091104108420403190800CC
:1007A80042088A0041080A00833108000310220029
:1007B8008C1E0314031CE32B22008C160800220055
:1007C8008C120800771AEA2BF819EC2B761C080013
:1007D800771177167713F716080077190800F81DB0
:1007E8000800771277157713F7120800F81CFE2B0C
:1007F800F81008000330F0007008FA0008005030C4
:1008080021009E009B019C011D309D000800F322E1
:1008180012243E244F2303240823080078302100A3
:10082800990098012200960108007614F610F91430
:10083800F8142000BE010800640080010131890B12
:10084800212C003473082000C2007208C10008007F
:1008580073082000C0007208BF000800791D362CFC
:100868006E2308007D230800781A3C2CF81E080027
:10087800761608000A302100970008007811F7134F
:10088800781408007815F7177810080020001C1550
:1008980008007610F61408008E34003480340034D2
:1008A80030342A3420344E34A834613420344E3461
:1008B8001E3402340E34013402340F3478340A34CE
:0C08C8000A34043482341E340800080096
:020000040001F9
:08000000FF3FFF3FFF3FFF3F00
:04000E00DC3FFF1EB6
:00000001FF
