:020000002D28A9
:100008007E1480318B1E09280A28142872140B1DAF
:100018000E280F281428F11786311F2680312A2828
:1000280071170B1F182819282A282100911C1D2830
:100038001E282928F1162000911C23282428292865
:1000480071168631312680312A28F11571157E10F6
:1000580009002E28F001F101F201F901FA01FB0172
:10006800FC01FD0120308400003085001430863109
:100078009626803134308400003085001F30863168
:10008800962680317E102000182C0130F400740868
:100098002000D207FB19512852285D28500803195F
:1000A800562857285B2827170130D0025D28A71645
:1000B800FB157B1E6028612874287A1A6428652835
:1000C800702827160130B407003003180130B5072F
:1000D800003003180130B607A71581318D21803112
:1000E800791C772878289B281E302000520603198F
:1000F8007E287F28862827153C305206031D852830
:1001080086288A28A71486314126803120002714A2
:1001180003107B1F03140030093DF400F40EF40DA6
:10012800F40D7B087406BF397406FB00BC28200058
:10013800A617F91CA028A128BC280130F4007408CF
:10014800CC07261703304C02031CAB28AC28BC286C
:1001580003107B1F03140030093DF400F40EF40D66
:10016800F40D7B087406BF397406FB00A616CC0193
:100178003C305206031DC128C228C82885314C25A9
:10018800803120002616D201A6150800791ECD2838
:10019800CE282A2922008E1423008E150630F70057
:1001A8003030890BD528F70BD52800320730853138
:1001B8001A258031F700F80177082000D800780860
:1001C800D90023008E1122008E1000302000590221
:1001D8008030031958020318F228F328F928231548
:1001E8000130F7007708CB070829A314003059021B
:1001F8008F3003195802031C0229032908292314E4
:10020800FF30F7007708CB074B08803A7B3E031C8A
:100218000E290F2918298631802680312000A2173F
:100228000430F7007708CB004B08803A843E031867
:100238001E291F2928298631AD2680312000221742
:10024800FC30F7007708CB00A2167912200022169E
:100258000800003020003602031D3829013035021D
:10026800031D382948303402031C3B293C295F29E7
:100278002A147A19402941295F29A917FA1845290A
:1002880046295F292917F91C4A294B295F29A916EC
:100298007B1E4F2950295F298431AA248131FD0111
:1002A800FD0A2000CE01CE0A29160030B400003025
:1002B800B5000030B60000303602031D6929013050
:1002C8003502031D69292D303402031C6C296D2960
:1002D8008B29A9157A1A712972298B292915FA19D6
:1002E800762977298B29A914F91C7B297C298B2944
:1002F80029147B1E802981298B2984316524813129
:100308007C14FD01FD0A2000A817CE01CE0A28178B
:100318000800FA1C90299129982920002E15FA1D09
:10032800962997299829EB29FA1C9B299C29B429F5
:100338002000AE14450846040319A329A429B429AA
:100348000130C5020030C63B2E1445084604031D83
:10035800AE29AF29B429AD17FA127A15FA107C1014
:1003680020002D17FA1DB929BA29EB2941084204A2
:10037800031DBF29C029D029450846040319C529EA
:10038800C629CD29FA16AD160130C5020030C63B84
:10039800D5292D16FA12D529AD150130C102003024
:1003A800C23B2D15430844040319DB29DC29EB293A
:1003B8000130C3020030C43BAD1443084404031D9C
:1003C800E629E729EB292D147A137A16FA11AC17C6
:1003D8000800F91DF029F129162A20002C16791990
:1003E800F629F729162AAC15F91CFB29FC29162A27
:1003F8002C15FB1D002A012A162AAC147A19052A85
:10040800062A162A2C14FA180A2A0B2A162AAB17B7
:100418007C180F2A102A162AFD01FD0A2B17843191
:10042800AA248131791D192A1A2A3C2A2000AB16E0
:10043800FB1D1F2A202A3C2A2B16F919242A252AB3
:100448003C2AAB157A1A292A2A2A3C2A2B15FA198A
:100458002E2A2F2A3C2AAB147C18332A342A3C2A09
:100468000230F5007508FD002B1484318924813190
:100478002000AA170800F91E422A432A842A2200CB
:100488008E140630F5003030890B482AF50B482ABF
:10049800003223000E1121000E1520000E1D552AD2
:1004A800562A5C2AA215FF30F5007508CA07612A8A
:1004B80022150130F5007508CA0722008E102000A9
:1004C8004A08803A753E031C6A2A6B2A732A0A3046
:1004D800F5007508CA00F911A2147915822A2214A8
:1004E8004A08803A8A3E03187A2A7B2A822AF630FA
:1004F800F5007508CA00F915A11779112117F91225
:100508002000A1160800791C8A2A8B2AA12A20001B
:100518002615FB1C902A912A962AA61486310D26A8
:100528008231C72A26147D0803199B2A9C2AC72AC8
:10053800A5178431E7248231C72A20002517F91C22
:10054800A62AA72AC72A7D080319AB2AAC2AB32AE8
:10055800A5164E080319B12AB22AB32A912A7D0892
:100568000319B72AB82ABC2A25168431E724823110
:100578002000A5154E080319C22AC32AC72A251523
:100588008531332582312000A51408000130200070
:10059800B9070030BA3D3F0840040319D42AD52AC8
:1005A800E42A0130BF020030C03BA4163F084004D3
:1005B800031DDF2AE02AE42A241686319C2682318C
:1005C800F91679176430200039063A04031DED2A1C
:1005D800EE2AFC2A863151268231823187228231E5
:1005E80001302000B7070030B83DA415B901BA01A1
:1005F8000A3037063804031D022B032B0A2B8031DF
:100608004920823120002415B701B801A41408003C
:100618008531D42583318B170B17853164258331B8
:100628006030F5000630F60086318F268331CA30F7
:10063800F5000230F6008631882683318631B226ED
:1006480083318B120030FC000030FB000030FA00D0
:100658000030F90022008E120E120E108E108C122D
:100668000C1200302000B4000030B5000030B60095
:10067800C501C601C301C401C101C201BF01C00156
:10068800D101BD01BE01BB01BC01CF01A01608000C
:1006980079184F2B522B22000E14542B22000E10C7
:1006A800FB1B572B5A2B22008E145C2B22008E101A
:1006B8007A1B5F2B622B22000E16642B22000E126F
:1006C800FA1A672B6A2B22008E166C2B22008E12C8
:1006D8007B1B6F2B722B22000C16742B22000C1222
:1006E800FA1F772B782B7B2B200023178B167B1C6C
:1006F8007E2B7F2B842B8B122000A31622008C12BA
:10070800200023160800791F8A2B8B2BBF2B230070
:100718008C1021008C1420008C1C932B942B9A2B6A
:1007280021160130F5007508C9079F2BA115FF3068
:10073800F5007508C9074908803A753E031CA52BC2
:10074800A62BAE2B0A30F5007508C900F913211540
:100758007A14BD2BA1144908803A8A3E0318B52B98
:10076800B62BBD2BF630F5007508C900F917211412
:100778007A10A0177913200020170800F91FC52B3D
:10078800C62BD82B20002A17FB1ACB2BCC2BEC2BF3
:100798007B12FB168531BF2583312000AA16023053
:1007A800F5007508CE00EC2B20002A167A1CDD2BEC
:1007B800DE2BEC2BAA157B1AE22BE32BEC2B7B16FA
:1007C800FB128531BF25833120002A15CE01CE0AC0
:1007D800AA140800FA19F12BF22B152C2000321557
:1007E8007A1AF72BF82B152CB214FB1DFC2BFD2BBA
:1007F800152CFA157A11FA10FA127A1732147A307F
:10080800C3000030C4007830C5000030C600013095
:10081800C1000030C2000030B4000030B500003024
:10082800B6002000B117080083310C23843164001E
:1008380083314C2384317918222C232C382C200026
:1008480020168331872384318331C2238431823156
:100858003F2284318131ED2184318031CA208431B5
:1008680081312D2184311B2C2000A015843189244D
:1008780084311B2C2D28F80023009518442C452C76
:10088800402CF2138B1F492CF2178B137808F600B3
:10089800F701760823009100770892007508930005
:1008A800151555309600AA3096009514F21B5D2C4C
:1008B8005F2C8B17602C8B1323001511200020153B
:1008C8000800FA19682C692C862C200031177A1A2E
:1008D8006E2C6F2C862CB116FB1D732C742C862C59
:1008E800FA157A11FA10FA127A1731161B30C3006A
:1008F8000030C4001930C5000030C6000130C10006
:100908000030C2002000B1150800FA1C8C2C8D2C78
:10091800932C20002F168531BF258431A72C7B1EF0
:10092800962C972C9D2C2000AF158331EE23843113
:10093800A72C20002F15FB1EA22CA32CA72CAF142C
:1009480085319225843120002F140800FA1DAD2C22
:10095800AE2CB42C2000AE178531BF258431C82CAD
:100968007B1EB72CB82CBE2C20002E178431CB242C
:100978008431C82C2000AE16FB1EC32CC42CC82CF6
:100988002E168531FB2584312000AE1508007A1912
:10099800CE2CCF2CE42C20003115FA18D42CD52CD1
:1009A800E42CB114FB1DD92CDA2CE42CFA147A129D
:1009B800FA117A13FA1631147830C5000030C600DF
:1009C8002000B01708007B19EA2CEB2CFE2C7D08C0
:1009D8000319EF2CF02CF42C2000B3150130FD0284
:1009E8001E302000BF000030C0007C113315863156
:1009F800A22684312000B3140800F700230015183C
:100A0800062D072D022D2000A014230095180D2D6A
:100A18000E2D022D7708F500F6017508910076086D
:100A2800920015141308200020140800F600760818
:100A3800F500F50DF50D21001D08750683397506BD
:100A48009D001D140630890B272D003221009D14AE
:100A58009D182F2D302D2C2D1C08721508007B1980
:100A6800362D372D492D20004E0803193C2D3D2DDC
:100A7800402D33140130CE028230BF000030C00058
:100A88007C15B2178631A22685312000321708005E
:100A9800200051080319512D522D562DA81601304A
:100AA800D102622D28165108031D5B2D5C2D622D85
:100AB800FB14A8151E30F3007308D1002815080090
:100AC80001308531012585312000D8005808D9002A
:100AD800590A031D702D712D782D2414F501F50A7E
:100AE800013084313F2485312000A31708002100FC
:100AF8001508C039113895008330200095008330DF
:100B0800F7007708D7000B118B16B930F5000630BF
:100B1800F60086318F268531F01508007A1A952D52
:100B2800962D9C2D20003017FB199B2D9C2DA22D56
:100B38002000B016791CA12DA22DA72D30167A11F0
:100B48007A167A13FA16B015080022008C018E0165
:100B58000F3021008C000C308E00083023008E00EE
:100B680005308C0024008C018E012100951722008D
:100B78009D01F21408007A13FA12FA11FA107A1287
:100B8800FB1EC72DC82DCC2D2000AF177A15CF2DF1
:100B980020002F177A11FB11D001D00AAF160800D8
:100BA8008531A92585318631782685318631A82673
:100BB80085318531E825853186316F268531853146
:100BC8007B25853172170800633020009B009A014D
:100BD800911021009114C830F5000630F6008631D6
:100BE800882685314D3020009C00F11408007A19C0
:100BF800FE2DFF2D0A2E20003015FB1D042E052E7C
:100C08000A2EB0147A127A157A13FA1220003014C8
:100C180008007C1D102E112E172E2000B2168431CC
:100C2800E72486311C2E2000321685313325863183
:100C38002000B21508000B11200057089500530832
:100C480054040319282E292E2F2E701554088A00B3
:100C580053080A008631F014080020009110550846
:100C680056040319382E392E3F2EF01756088A00DD
:100C780055080A00863170170800FB1C442E452EC3
:100C8800492E2000A814FB104F2E200028140330F2
:100C9800F3007308FD00A71708007B1A542E552E81
:100CA8005B2E20002514FB1E5A2E5B2E5E2E200084
:100CB800A417791624170800031022008C1E0314A9
:100CC8000318672E6A2E22008C166C2E22008C12B6
:100CD8002000A3150800503021009E009B019C01B4
:100CE8001D309D00F2150800783021009900980108
:100CF80022009601F21608007914F910FC14FB146E
:100D08002000D2012C17080076082000D6007508AC
:100D1800D500F016080076082000D4007508D30026
:100D280070140800640080010131890B972E00348B
:100D38007B11FA137B142000331608007B15FA1771
:100D48007B102000B31608000A30210097007216A5
:100D580008007910F9142000AC16080020001C15B2
:100D6800711408002C3401340034200033170800B3
:100D78008E3400348034003420344E340E34003441
:100D8800A834613420344E34701608001E340134FF
:100D980001340134193478340A340A34043482347E
:020DA8001E34F7
:020000040001F9
:08000000FF3FFF3FFF3FFF3F00
:04000E00DC3FFF1EB6
:00000001FF
