:020000002628B0
:100008007E1480318B1E09280A2812280B1D0D2802
:100018000E28122881313A21803124280B1F1528F7
:10002800162824282100911C1A281B28242820007F
:10003800911C1F28202824288031C520803124289D
:100048007E1009002728F001F101F201F301F40103
:10005800F501F6012000A001A101A201A301A4015C
:10006800A501A601A7017E10200071288131162163
:10007800803101302000A0070030A13D0030A23DB2
:100088000030A33D761C49284A285928031022002D
:100098000C1E031403185128542822000C16562845
:1000A80022000C12F501F50A70280130FD007D08C8
:1000B800F00703307002031C6228632870280310BD
:1000C80022000C1E031403186A286D2822000C163F
:1000D8006F2822000C12F00108008031F0208031D6
:1000E8008B170B1729302000AD000130AE0081318D
:1000F8006B2180313A302000AD000030AE008131F4
:100108006521803181317D2180310D302000B000A2
:10011800FB30890B8D28B00B8D28003264008928AC
:100128002628FA007A08F900F90DF90D21001D08B2
:100138007906833979069D001D14003200320000CB
:1001480021009D149D18A928AA28A6281C08F80093
:100158001B08F700080021001508C039173895005A
:100168001630200095001630AF002F08AC000B1198
:100178008B168130AD000130AE0081316B218031AA
:100188000800200091100130A4070030A53D01307F
:100198002502E93003192402031CD328D428DA28BD
:1001A80081314A2180312000A401A50108002200E4
:1001B8008C018E010F3021008C000C308E0008302D
:1001C80023008E0005308C0024008C018E01210054
:1001D800951722009D0108008031DB208031813194
:1001E800572180318131792180318131032180315A
:1001F80081315E2180318031AF20803108000130AB
:1002080020009B009A019110210091148030200059
:10021800AD000130AE008131652181317F30200091
:100228009C00080007308031952081317808FC0057
:100238007708FB0000307C02033003197B02031CA3
:1002480026292729282976140800761C2C292D29E7
:100258003929031022008C1E031403183429372966
:1002680022008C16392922008C1208000B1120005C
:100278002C089500280829040319432944294929E9
:1002880029088A0028080A008131080020002A0865
:100298002B0403195029512956292B088A002A08AA
:1002A8000A00813108006830210099009801220075
:1002B8009601080021009E019B019C0101309D00D0
:1002C800080020002E08AB002D08AA000800200016
:1002D8002E08A9002D08A8000800FD34FF340434B6
:1002E80000340A34003400340034163021009700FA
:0C02F800080020001C1508000800080089
:020000040001F9
:08000000FF3FFF3FFF3FFF3F00
:04000E00E43FFF1EAE
:00000001FF
