:020000002628B0
:100008007E1480318B1E09280A2812280B1D0D2802
:100018000E28122883319123803124280B1F15289C
:10002800162824282100911C1A281B28242820007F
:10003800911C1F28202824288331BF23803124289D
:100048007E1009002728F701F801F901FA0120308C
:1000580084000030850021308331F32380317E1005
:100068002000762A003020002202031D412800309B
:100078002102031D412879302002031C4428452809
:100088005828781A482849285828F8194C284D28FB
:100098005828F71C5028512858287A1C54285528C5
:1000A8005828823197228031003020002202031D17
:1000B800632800302102031D632887302002031CB7
:1000C800662867288128781E6A286B288128F81DE9
:1000D8006E286F288128F71C7228732881287A1CBB
:1000E8007628772881288331DA2380310030200070
:1000F800A0000030A1000030A2000800781D85286B
:10010800862895287A1C89288A2895280130200075
:10011800A007003003180130A10700300318013090
:10012800A2078131C0218031771C9B289C28AC28EC
:10013800031022000C1E03140318A328A62822006B
:100148000C16A82822000C12843113248031C928E7
:10015800F71CAF28B028C9280130F2007208200027
:10016800B50703303502031CBA28BB28C928031079
:1001780022000C1E03140318C228C52822000C16DE
:10018800C72822000C122000B5010800F71DCD2851
:10019800CE28ED28F71CD128D228ED28781ED5289E
:1001A800D628ED28F81AD928DA28ED280130833125
:1001B800B02380317A1CE128E228E6288331DA234B
:1001C8008031ED28FA1CE928EA28ED288431052435
:1001D8008031F719F028F1280C29781DF428F52822
:1001E8000C29F81AF828F9280C2902308331B02391
:1001F80080317A1C0029012905298231B7228031F2
:100208000C29FA1C082909290C2984310A2480316F
:10021800080022008E1423008E150630F5003030B9
:10022800890B1429F50B1429003207308231F12289
:100238008131F500F60175082000C5007608C60072
:1002480023008E1122008E100030200046028030DC
:100258000319450203183129322937290130F500DD
:100268007508BA074129003046028F300319450244
:10027800031C3F2940294129BA0109303A02031CCD
:10028800462947294A29833146238131080022001B
:100298008E140630F3003030890B5029F30B5029A7
:1002A800003223000E1121000E1520000E1D5D29BD
:1002B8005E296329FF30F3007308B9076729013005
:1002C800F3007308B90722008E1020003908803A1D
:1002D800753E031C7029712978290A30F3007308C8
:1002E800B900F711771585293908803A8A3E03182D
:1002F8007E297F298529F630F3007308B900F715A0
:100308007711080083315A2381318B170B178331FA
:100318001E238131CD30F3000330F4008331FF23F5
:100328008131F230F3000130F4008331F923813157
:1003380084311724813123008E118C100E11240072
:100348008C1021008C1424000E1121000E158B1224
:100358000030FA000030F9000030F8000030F700F3
:100368007710F71422008E120E120E1021000E10B4
:100378002000B101B2010800843113248131F81E34
:10038800C629C729F1292000310832040319CD29CB
:10039800CE29D3290130B1020030B23BF129781FB0
:1003A800D629D729EC2922008E122930F10096305F
:1003B800F0007F30890BDE29F00BDE29F10BDE29F6
:1003C800000022000E12F81178167813F812F1299D
:1003D80022008E12F8107812F8120800013020005E
:1003E800A3070030A43DF91EFA29FB29FF29013093
:1003F800A7020030A83BF91D022A032A072A013068
:10040800A5020030A63B643023062404031D0D2AF0
:100418000E2A112A7716A301A401E8302306033017
:1004280003192406031D192A1A2A202A803182203A
:1004380081312000A301A401080023008C102100B1
:100448008C1420008C1C292A2A2A2F2A0130F30018
:100458007308B707332AFF30F3007308B707370864
:10046800803A753E031C392A3A2A412A0A30F30099
:100478007308B700F71378144E2A3708803A8A3E73
:100488000318472A482A4E2AF630F3007308B700A3
:10049800F717781008002000C50023009518552A82
:1004A800562A512A00308B1B01302000C6008B13BE
:1004B8004508F400F50174082300910075089200BE
:1004C80073089300151555309600AA3096009514B8
:1004D80020004618702A722A8B17732A8B13230060
:1004E80015110800813186218231F7187C2A7D2A6E
:1004F800792A8231212282318231D7228231813197
:100508004B2182318031CA208231771E8C2A8D2A74
:10051800912A81310D218231771280313620823142
:100528006400792A262800302000A0000030A100AD
:100538000030A20022000E16F8152930F40096307B
:10054800F3007F30890BA62AF30BA62AF40BA62A00
:10055800000022008E1602302000B1000030B200E8
:10056800F8167817080000302000A0000030A1001D
:100578000030A20022000E16F8152930F40096303B
:10058800F3007F30890BC62AF30BC62AF40BC62A60
:10059800000022008E160A302000B1000030B200A0
:1005A800F81678170800F71FDA2ADB2AE62A7A1CD9
:1005B800DE2ADF2AF02A7A10FA1402308331A123C6
:1005C8008231F02AFA1CE92AEA2AF02A7A14FA1067
:1005D80001308331A12382310800F4007408F3004C
:1005E800F30DF30D21001D087306833973069D0072
:1005F8001D140630890BFE2A003221009D149D1817
:10060800062B072B032B1C08080022008C018E01E7
:100618000F3021008C000C308E00083023008E0033
:1006280005308C0024008C018E01210095172200D2
:100638009D0108000030833132238331F6007608AB
:100648002000C700470A031D2A2B2B2B312BF3014F
:10065800F30A003082314F2283310800F50023006D
:100668001518372B382B332B95183B2B3C2B332B5A
:100678007508F300F40173089100740892001514CA
:1006880013080800771422000E148B167A1C4D2BC1
:100698004E2B522B8231B7228331592BFA1C552B02
:1006A800562B592B84310A248331080083310923BE
:1006B80083318331EC23833184310F2483318331B7
:1006C8006D2383318331E423833183317F23833165
:1006D8000800633020009B009A01911021009114BA
:1006E8002730F3000430F4008331F92383314D308F
:1006F80020009C00080021001508C0391138950019
:1007080020009501C0010B118B162830F30004302E
:10071800F4008331FF23833108000B1120004008C7
:1007280095004108420403199A2B9B2BA02B4208E1
:100738008A0041080A0083310800F40084311A2431
:10074800833179161E302000A9000030AA007408F1
:10075800F3007308BC000800F40084311A248331C4
:1007680079161E302000A9000030AA007408F30092
:100778007308BD00080020009110430844040319C1
:10078800C62BC72BCC2B44088A0043080A008331A8
:100798000800031022008C1E03140318D42BD72B37
:1007A80022008C16D92B22008C12080022000E126F
:1007B8008E160A302000B1000030B200F81608008A
:1007C800503021009E009B019C011D309D000800B7
:1007D80078302100990098012200960108006400F1
:1007E80080010131890BF42B003474082000C40007
:1007F8007308C300080074082000C2007308C10011
:100808000800781222000E128E12080078162200B4
:100818000E128E1608000A302100970008002200E8
:100828008C168C12080020001C1508008B16F91471
:1008380008008E3400348034003420344E34A83418
:0A084800613420344E34080008002B
:020000040001F9
:08000000FF3FFF3FFF3FFF3F00
:04000E00DC3FFF1EB6
:00000001FF
