:020000002628B0
:100008007E1480318B1E09280A2812280B1D0D2802
:100018000E28122884314724803124280B1F1528E4
:10002800162824282100911C1A281B28242820007F
:10003800911C1F2820282428843157248031242803
:100048007E1009002728F701F801F901FA01FB01E0
:10005800FC0120308400003085001530843195245F
:1000680080317E1020008E2B003020002202031DDC
:10007800432800302102031D432879302002031C45
:10008800462847285A2878194A284B285A28F81801
:100098004E284F285A287718522853285A28F71CD0
:1000A800562857285A2883313323803100302000BE
:1000B8002202031D652800302102031D65288730B0
:1000C8002002031C682869288328781D6C286D285D
:1000D8008328F81C702871288328771874287528B5
:1000E8008328F71C78287928832884317224803162
:1000F80000302000A0000030A1000030A20008005D
:1001080022008E1423000E152000BB010630833117
:10011800732380312000B700B8013708B9003808C8
:10012800BA0000303A0219300319390203189D2821
:100138009E28A328FF30B7003708B307A728013047
:10014800B7003708B3073308803A753E031CAD285B
:10015800AE28B6280A30B7003708B3007711BB01BC
:10016800BB0AC3283308803A8A3E0318BC28BD2836
:10017800C3280A30B7003708B3007715B3283B08FF
:100188000319C728C8288A2823000E1122008E10B8
:10019800080023008C142000BB0101308331732335
:1001A80080312000B700B8013708B9003808BA0014
:1001B80000303A021930031939020318E428E528F7
:1001C800EA28FF30B7003708B107EE280130B7003A
:1001D8003708B1073108803A753E031CF428F52822
:1001E800FD280A30B7003708B100F711BB01BB0A78
:1001F8000A293108803A8A3E0318032904290A2962
:10020800F630B7003708B100F715FA283B0803198C
:100218000E290F29D12823008C100800771D1529D5
:1002280016293429771819291A293429781D1D29DE
:100238001E293429F71A2129222934292000B50139
:10024800B50A28308231E3228131F71C2C292D2967
:10025800312984317224813134298431A7248131B0
:10026800771937293829542978193B293C295429E1
:10027800F71A3F294029542902302000BB003B08C7
:10028800B50028308231E3228131F71C4C294D29F1
:10029800512983313323813154298431AC2481316C
:1002A800080022008E1423000E15063083317323B4
:1002B80081312000B700B8013708B9003808BA0002
:1002C80023000E1122008E10003020003A0219304F
:1002D800031939020318712972297729FF30B700E9
:1002E8003708B4077B290130B7003708B40734084A
:1002F800803A753E031C8129822988290A30B70073
:100308003708B400771194293408803A8A3E0318D4
:100318008E298F299429F630B7003708B40077154D
:10032800080001302000A007003003180130A107A1
:10033800003003180130A2078231B12281316400F4
:10034800771CA729A829B829031022000C1E03141A
:100358000318AF29B22922000C16B42922000C1266
:1003680084317C248131D22982317D22813101304E
:10037800F6007608F90703307902031CC429C52959
:10038800D229031022000C1E03140318CC29CF29EC
:1003980022000C16D12922000C12F90108002300B2
:1003A8008C1401308331732381312000B700B801E8
:1003B8003708B9003808BA0023008C100030200034
:1003C8003A021930031939020318EB29EC29F129EB
:1003D800FF30B7003708B207F5290130B7003708F2
:1003E800B2073208803A753E031CFB29FC29022A11
:1003F8000A30B7003708B200F7110E2A3208803ADF
:100408008A3E0318082A092A0E2AF630B700370848
:10041800B200F71508008331BE2382318B170B1702
:1004280027302000B5000430B6008431A124823181
:10043800FF302000B5000330B60084319B248231A0
:100448008431BE24823123008E118C100E112400B9
:100458008C1021008C1424000E1121000E158B1213
:10046800F701F801771022008E120E120E102100EB
:100478000E108031CD2082318031842082312000DD
:10048800AD01AE0108002000B800B901762ABA0112
:100498005E2A84312724823106302000B6003030AD
:1004A800890B542AB60B542A000001302000B600EC
:1004B8003608BA0738083A02031C632A642A4D2A08
:1004C80004302000B7000C30B6003330890B6A2A9C
:1004D800B60B6A2AB70B6A2A003201302000B60030
:1004E8003608B90735083902031C7B2A7C2A4B2AAF
:1004F800080022008E1423008E1507308331A623AE
:100508008231F200F3017208F4007308F500230049
:100518008E1122008E10003075028030031974028B
:100528000318972A982A9D2A0130F2007208FA07C0
:10053800A72A003075028F3003197402031CA52AFC
:10054800A62AA72AFA0103307A02031CAC2AAD2A8C
:10055800B02A8431372482310800843165248231FD
:10056800F71EB72AB82AE22A20002D082E040319FC
:10057800BE2ABF2AC42A0130AD020030AE3BE22AAF
:10058800771FC72AC82ADD2A22008E122930F100D7
:100598009630F0007F30890BCF2AF00BCF2AF10B71
:1005A800CF2A000022000E12F81078157713F712E0
:1005B800E22A22008E12F7137811F71208002000A1
:1005C800B800B9010C2BBA01F52A843127248231ED
:1005D800F0300032890BED2A01302000B6003608D1
:1005E800BA0738083A02031CFA2AFB2AE92A033018
:1005F8002000B7000830B6007730890B012BB60B06
:10060800012BB70B012B01302000B6003608B907C3
:1006180035083902031C112B122BE72A0800F71D95
:10062800162B172B262BF71C1A2B1B2B322BF710EC
:1006380002302000BB003B08B50028308231472239
:100648008331322BF718292B2A2B322BF714200051
:10065800B501B50A283082314722833108000030BD
:100668002000A0000030A1000030A20022000E16D9
:10067800F81429302000B6009630B5007F30890B79
:10068800432BB50B432BB60B432B22008E160A3097
:100698002000AD000030AE00F716771708000030D4
:1006A8002000A0000030A1000030A20022000E1699
:1006B800F8142930F1009630F0007F30890B622B56
:1006C800F00B622BF10B622B000022008E160A3011
:1006D8002000AD000030AE00F716771708002000A4
:1006E800B6003608B500B50DB50D21001D0820006F
:1006F80035068339350621009D001D140630890B07
:10070800832B003221009D149D188B2B8C2B882B5A
:100718001C08080082310F2283317718942B952BFF
:10072800912B8131D321833183311323833181315B
:100738005521833181311221833180313820833131
:10074800912B2628F1007108F000F00DF00D210022
:100758001D087006833970069D001D140630890B2C
:10076800B32B003221009D149D18BB2BBC2BB82B3A
:100778001C0808008331EA23833184318E248331B5
:100788008431B62483318431BA2483318431862478
:1007980083318431142483318331D4238331080095
:1007A80021001508C039123895009C3020009500AA
:1007B8009C30B7003708C0000B118B16CC30B50041
:1007C8000430B6008431A1248331080022008C0152
:1007D8008E010F3021008C000C308E000C3023006D
:1007E8008E0007308C0024008C018E0121009517A3
:1007F80022009D01080001302000A3070030A43D1D
:10080800E8302306033003192406031D0C2C0D2C95
:10081800132C8131952183312000A301A401080004
:10082800633020009B009A01911021009114CB3075
:100838002000B5000430B60084319B2484314D304B
:1008480020009C0008007E1C2A2C652C0310220026
:100858008C1E03140318312C342C22008C16362CD1
:1008680022008C120800771422000E148B16F71C35
:100878003E2C3F2C432C833153238431462C843126
:10088800B124843108000B112000400895003C0871
:100898003D040319502C512C562C3D088A003C0865
:1008A8000A0084310800200091103E083F04031913
:1008B8005E2C5F2C642C3F088A003E080A008431B5
:1008C8000800031022008C1E031403186C2C6F2CD4
:1008D80022008C16712C22008C12080022000E12A5
:1008E8008E160A302000AD000030AE00F716080062
:1008F80003108B1E03140318822C842C8B16852C52
:100908008B120800503021009E009B019C017D3015
:100918009D00080078302100990098012200960176
:100928000800640080010131890B962C00342000F6
:100938003608BF003508BE00080020003608BD0094
:100948003508BC000800781122000E128E1208002B
:10095800781522000E128E160800781522000E1245
:100968008E160800163021009700080082302200F9
:100978009700080020001C1508008E3400348034CD
:10098800003420344E34A834613420344E34080006
:02099800080055
:020000040001F9
:08000000FF3FFF3FFF3FFF3F00
:04000E00E43FFF1EAE
:00000001FF
