:020000002628B0
:100008007E1480318B1E09280A2812280B1D0D2802
:100018000E28122882319C22803124280B1F152893
:10002800162824282100911C1A281B28242820007F
:10003800911C1F2820282428823115228031242849
:100048007E1009002728F801F901FA01FB01FC01DB
:10005800FD0120308400003085000E308231F52209
:1000680080317E102000AC2A01302000A00700302B
:10007800A13D0030A23D0030A33D8131B021803147
:1000880064007D1C482849285928031022000C1EAA
:10009800031403185028532822000C165528220050
:1000A8000C128231C722803179288031F8208031C2
:1000B8008031BB20803180317A2080310130F700D7
:1000C8007708F80703307802031C6B286C28792816
:1000D800031022000C1E031403187328762822002C
:1000E8000C16782822000C12F801080022008E1441
:1000F80023000E1506308131E42180317108F600A5
:100108007008F50023000E1122008E1076082000DA
:10011800A5007508A400173076027030031975021F
:100128000318972898289D28FF30F4007408FB07C7
:10013800A1280130F4007408FB077B08803A753E5B
:10014800031CA728A828AE280A30F4007408FB006E
:10015800FD15BA287B08803A8A3E0318B428B528CA
:10016800BA28F630F4007408FB00FD1108002300DB
:100178008C1401308131E42180317108F600700857
:10018800F50023008C1076082000A7007508A6004B
:10019800173076027030031975020318D428D52851
:1001A800DA28FF30F4007408F907DE280130F4007B
:1001B8007408F9077908803A753E031CE428E52895
:1001C800EB280A30F4007408F9007D16F72879083E
:1001D800803A8A3E0318F128F228F728F630F4000E
:1001E8007408F9007D12080022008E1423008E1571
:1001F80007308131E42180317108F6007008F5007C
:1002080023008E1176082000A9007508A800220096
:100218008E104E3076022030031975020318152906
:1002280016291B290130F4007408FA0725299C3087
:100238007602413003197502031C23292429252934
:10024800FA0103307A02031C2A292B292E2982312C
:100258008C22803108008231552281318B170B178F
:100268007B302000B4000230B50083310123813196
:1002780038302000B4000030B5008231FB228131D3
:1002880083311C23813123008E1124008C1022001D
:100298008C1021008C1423008C1024000E112200D5
:1002A8000E1121000E1523000E1122008E120E12BF
:1002B80021000E1022000E108B12FD012000B20149
:1002C80008002000A31B75292308031D762922088E
:1002D800031D7629013020027530213B031C752946
:1002E800762995297D1D79297A299529FD1C7D294D
:1002F8007E2995298231D422813107302000B5002A
:100308007D30890B8529B50B85298131962181316D
:1003180000302000A3000030A2000030A10000300F
:10032800A000080000302000A3000030A200003028
:10033800A1000030A0007D1122000E16C830003246
:10034800890BA32922008E160A302000B400340835
:10035800B2007D17FD1708007D1FB329B429C929EC
:10036800200032080319B929BA29BC290130B20280
:100378003208031DC029C129C92922008E12C8309C
:100388000032890BC42922000E1208000030200018
:10039800A3000030A2000030A1000030A0007D11B1
:1003A80022000E16C8300032890BD72922008E167B
:1003B8000A30F00070082000B2007D17FD17080011
:1003C800F3007308F200F20DF20D21001D08720609
:1003D800833972069D001D1400320032000021008E
:1003E8009D149D18F829F929F5291C08F1001B0806
:1003F800F00008007D1D012A022A0C2A813196216D
:100408008131FD19082A0A2A7D150B2A7D11142A23
:10041800FD1D0F2A102A142A8231D4228131052A7F
:100428000800200091100130AA070030AB3D0030D1
:100438002B020A3003192A02031C232A242A2A2AF7
:100448008231BA2282312000AA01AB0108002100C2
:100458001508C03917389500163020009500163059
:10046800B6003608B3000B112030B4000330B500D5
:10047800833101238231080022008C018E010F3064
:1004880021008C000C308E000C3023008E000730C9
:100498008C0024008C018E012100951722009D01FB
:1004A80008008231402282318231EE22823183314A
:1004B8001823823182316822823182312B228231A3
:1004C8008231E622823108008D3020009B009A019B
:1004D8009110210091141F302000B4000330B500A2
:1004E8008231FB228231573020009C0008007D1C9D
:1004F8007E2A7F2A8B2A031022008C1E03140318DD
:10050800862A892A22008C168B2A22008C1208003F
:100518007D1422000E148B16FD1C932A942A982A07
:100528008331072382319B2A8131CA218231080015
:100538000B112000330895002E082F040319A52A53
:10054800A62AAB2A2F088A002E080A008231080042
:1005580081312F2182318131FE2182318131652122
:1005680082318231DE228231AF2A262820003008EB
:1005780031040319C02AC12AC62A31088A00300862
:100588000A0082310800031021008C1E031403188E
:10059800CE2AD12A21008C16D32A21008C120800D9
:1005A80022000E128E160A302000B4003408B20061
:1005B8007D1708007D1EE12AE22AE42AFD14E52AB7
:1005C800FD100800403021009E009B019C01013075
:1005D8009D000800683021009900980122009601CA
:1005E8000800640080010131890BF62A00342000DC
:1005F8003508B1003408B000080020003508AF0005
:100608003408AE0008007D1122000E128E16080074
:1006180040349C340034003420344E3400340034E8
:100628000034753400340034163021009700080077
:0A06380020001C150800080008004F
:020000040001F9
:08000000FF3FFF3FFF3FFF3F00
:04000E00E43FFF1EAE
:00000001FF
