:020000002628B0
:100008007E1480318B1E09280A2812280B1D0D2802
:100018000E28122884319924803124280B1F152892
:10002800162824282100911C1A281B28242820007F
:10003800911C1F2820282428843151248031242809
:100048007E1009002728F801F901FA01FB01FC01DB
:100058002000AC01AD01AE01AF01B001B101B201A8
:10006800B301B401B501B6017E102000DA2BFC1DE6
:100078003E283F2868287C184228432868287C1D89
:10008800462847286828FC1A4A284B286828FC1C58
:100098004E284F2853288431C32480315628843170
:1000A800F2248031F4302000A0000130A100643037
:1000B800A2000030A3002830AA002A08A400A50145
:1000C800A50A8231CA228031FC196B286C28932832
:1000D8007C196F2870289328FC1A73287428932891
:1000E800FC1C772878287C288331762380317F2868
:1000F8008431F7248031F4302000A0000130A100C1
:100108006430A2000030A3002830AA002A08A40006
:100118000230AB002B08A5008231CA2280310800CA
:1001280020002F08031DA4282E08031DA4282D082D
:10013800031DA4283D302C02031CA328A428B3289F
:100148007C19A728A828B3287C18AB28AC28B32882
:10015800FC1CAF28B028B3288331762380312000D7
:100168002F08031DC3282E08031DC3282D08031DAF
:10017800C32849302C02031CC228C328DB287C1D55
:10018800C628C728DB287C18CA28CB28DB28FC1CF3
:10019800CE28CF28DB288431C324803100302000CA
:1001A800AF000030AE000030AD000030AC000800F9
:1001B80022008E1423000E152000A701063083317B
:1001C8009823803120002108A6002008A5000730C8
:1001D8002602D030031925020318F328F428F92839
:1001E800FF30A4002408B407FD280130A400240827
:1001F800B4073408803A753E031C032904290C29E6
:100208000A30A4002408B400FC11A701A70A192980
:100218003408803A8A3E0318122913291929F6301E
:10022800A4002408B400FC150929270803191D296E
:100238001E29E22823000E1122008E1008007C1EC1
:10024800262927294829FC1C2A292B296829FC103A
:100258007C1D2F29302933298431F7248131FA3044
:100268002000A0000030A1006430A2000030A300EC
:100278002830AA002A08A4000330AB002B08A500E8
:100288008231CA2281316829FC184B294C296829F6
:10029800FC147C1D5029512954298331762381313E
:1002A800FA302000A0000030A1006430A200003025
:1002B800A3002830AA002A08A4000230AB002B08AB
:1002C800A5008231CA228131080023008C14200045
:1002D800A701013083319823813120002108A6002D
:1002E8002008A50007302602D0300319250203187C
:1002F8007E297F298429FF30A4002408B207882991
:100308000130A4002408B2073208803A753E031C65
:100318008E298F2997290A30A4002408B2007C125C
:10032800A701A70AA4293208803A8A3E03189D2902
:100338009E29A429F630A4002408B2007C1694292A
:1003480027080319A829A9296D2923008C1008005A
:100358008431B624813101302000AC070030AD3D36
:100368000030AE3D0030AF3D83312423813164003D
:100378007C1CBF29C029D029031022000C1E03149D
:100388000318C729CA2922000C16CC2922000C12EE
:100398008431CD248131EA2982319822813101309A
:1003A800F7007708FA0703307A02031CDC29DD29F5
:1003B800EA29031022000C1E03140318E429E72974
:1003C80022000C16E92922000C12FA01080022006A
:1003D8008E1423000E1506308331982381312000B6
:1003E8002108A6002008A50023000E1122008E1067
:1003F800073020002602D030031925020318052AE9
:10040800062A0B2AFF30A4002408B5070F2A01305A
:10041800A4002408B5073508803A753E031C152A40
:10042800162A1C2A0A30A4002408B500FC11282A20
:100438003508803A8A3E0318222A232A282AF630C9
:10044800A4002408B500FC15080023008C14013012
:1004580083319823823120002108A6002008A500B6
:1004680023008C10073020002602D0300319250203
:1004780003183F2A402A452AFF30A4002408B3075E
:10048800492A0130A4002408B3073308803A753E8E
:10049800031C4F2A502A562A0A30A4002408B30005
:1004A8007C12622A3308803A8A3E03185C2A5D2A45
:1004B800622AF630A4002408B3007C1608008431B0
:1004C800102482318B170B1779302000A0000430DC
:1004D800A1008431EC248231AC302000A00001302E
:1004E800A1008431E624823185311525823123002B
:1004F8008E118C100E1124008C1021008C142400F5
:100508000E1121000E158B12FC0122008E120E1204
:100518000E1021000E108031DC20823181316921DA
:1005280082312000B601080022008E1423008E15A7
:1005380007308331F52382317108F6007008F50021
:1005480023008E1122008E104E30760220300319BF
:1005580075020318B02AB12AB62A0130F4007408CB
:10056800FB07C02A9C307602413003197502031C30
:10057800BE2ABF2AC02AFB0103307B02031CC52AFE
:10058800C62AC92A84318924823108002000A8019A
:10059800F22AA901DB2A843179248231F030003231
:1005A800890BD32A01302000A6002608A9072408B1
:1005B8002902031CE02AE12ACF2A03302000A700E1
:1005C8000830A6007730890BE72AA60BE72AA70B85
:1005D800E72A01302000A6002608A80725082802D7
:1005E800031CF72AF82ACD2A08002000A3002300BC
:1005F8009518FF2A002BFB2A00308B1B01302000A6
:10060800A4008B132308A100A20121082300910054
:1006180020002208230092002000200823009300D5
:10062800151555309600AA30960095142000241808
:100638001E2B202B8B17212B8B1323001511080041
:10064800FC1E272B282B4D2B2000360803192D2B99
:100658002E2B312B0130B6024D2B7C1F342B352B22
:10066800492B22008E121530F1004B30F000BE30BD
:10067800890B3C2BF00B3C2BF10B3C2B003222005E
:100688000E127C157C13FC124D2B22008E127C114D
:10069800FC1208001F308331982383312000210881
:1006A800A7002008A600B4302702793003192602D3
:1006B800031C5F2B602B752BA8012808033EA5009F
:1006C8002508A00028088231F92283310130200052
:1006D800A5002508A807FA302802031C742B752BDF
:1006E800612B080000302000AF000030AE00003061
:1006F800AD000030AC0022000E1615302000A1001D
:100708004B30A000BE30890B872BA00B872BA10B89
:10071800872B000022008E160A302000A000200837
:10072800B600FC167C1708002000A3002308A200CE
:10073800A20DA20D21001D082000220683392206E1
:1007480021009D001D140630890BA82B00322100C2
:100758009D149D18B02BB12BAD2B1C082000A100B7
:1007680021001B082000A000080000302000AF0076
:100778000030AE000030AD000030AC0022000E1694
:100788001530F1004B30F000BE30890BC92BF00B4F
:10079800C92BF10BC92B003222008E160A30F0004B
:1007A80070082000B600FC167C170800823163220E
:1007B800833183314E2383317C18E32BE42BDD2BEB
:1007C8008131EB21833180313B20833182312922F1
:1007D8008331813123218331803194208331DD2B92
:1007E8002628F3007308F200F20DF20D21001D080F
:1007F8007206833972069D001D140630890B022C7F
:10080800003221009D149D180A2C0B2C072C1C0863
:10081800F1001B08F000080084313C248431843145
:10082800DF24843185310D258431853111258431CA
:100838008431D72484318431662484318431262458
:100848008431080021001508C039123895009C3001
:10085800200095009C30A2002208BB000B118B16CB
:100868001930A0000530A1008431EC24843108003F
:1008780022008C018E010F3021008C000C308E007C
:100888000C3023008E0007308C0024008C018E0170
:100898002100951722009D010800200091100130C9
:1008A800F8070030F93D0030790264300319780206
:1008B800031C5F2C602C652C8431A9248431F80139
:1008C800F9010800F93020009B009A0191102100DD
:1008D800911418302000A0000530A1008431E624CE
:1008E80084314E3020009C0008007E1C7C2CB62CE5
:1008F800031022008C1E03140318832C862C22005C
:100908008C16882C22008C1208007C1422000E14ED
:100918008B16FC1C902C912C952C8331B923843197
:10092800982C8431FC24843108000B1120003B08EA
:100938009500370838040319A22CA32CA82C3808D2
:100948008A0037080A0084310800200039083A0470
:100958000319AF2CB02CB52C3A088A0039080A00C4
:1009680084310800031022008C1E03140318BD2CC8
:10097800C02C22008C16C22C22008C1208002200E7
:100988000E128E160A302000A0002008B600FC16B1
:10099800080003108B1E03140318D32CD52C8B16B8
:1009A800D62C8B120800403021009E009B019C0130
:1009B8007D309D00080078302100990098012200C0
:1009C8009601080020002108BA002008B900080094
:1009D80020002108B8002008B70008007C11220078
:1009E8000E128E1208007C1522000E128E160800B8
:1009F8007C1522000E128E1608003C340034003498
:100A0800003440349C340034003420344E340034F4
:100A18000034163021009700080082302200970029
:0C0A2800080020001C1508000800080051
:020000040001F9
:08000000FF3FFF3FFF3FFF3F00
:04000E00FC3FFF1E96
:00000001FF
