:020000002628B0
:100008007E1480318B1E09280A2812280B1D0D2802
:100018000E2812288631EC26803124280B1F15283B
:10002800162824282100911C1A281B28242820007F
:10003800911C1F28202824288631A42680312428B2
:100048007E1009002728F801F901FA01FB01FC01DB
:1000580049308400003085001730873140278031CF
:10006800A03084000030850020308731402780315F
:100078007E102000FE2D2000BD01C5013430860011
:10008800003087000930B00000301E00B00B49284E
:100098000030BE000030BF000030C0005F08B00074
:1000A8003008C400E52820004408823178228031D5
:1000B80020002308C1002408C2002508C300C60187
:1000C8000330B0003008A000460886314D26803144
:1000D800343E86008701403F20004106031D7A28F0
:1000E800413F4206031D7A28423F4306031D7D28EF
:1000F8007E288C280130B00046083E3E86008701E5
:10010800300881070030C1000030C2000030C30051
:100118000130B0003008C60703304602031C95289A
:100128009628642843084204410403199C289D2802
:10013800E128BD01BD0AC8010330B0003008A000A5
:10014800480886314D268031343E86008701403F7D
:100158002000B100413FB200423FB30033083204EF
:100168003104031DB828B928D7284508B000B101C3
:10017800B2010330B3003308A000480886314D2689
:100188008031343E8600870120003008C03F3108A6
:10019800C13F3208C23F48083E3E860087018101C0
:1001A800810AC501E1280130B0003008C8070330D2
:1001B8004802031CE028E128A0280430B0003008D9
:1001C800C4075F08103EB000003003180130B100CA
:1001D8003108803A803C031DF32830084402031C90
:1001E800F628F72857282000C501C70145083E3ED4
:1001F8008600870147083E3E840085010008010209
:100208000318072908290C294708B0003008C50039
:100218000130B0003008C70703304702031C152916
:100228001629FA280330B0003008A00045088631A6
:100238004D268031343E86008701403F2000D5009E
:10024800413FD600423FD7003D0803192C292D29EC
:1002580031291030B0003008DF070800243086004C
:100268000030870020302000A30000301E00A30BC0
:100278003A29C40144088631342681312000A3007C
:100288002308C8004808031D4A294B294C299429EA
:10029800C5014535243E8600870101084806031D2F
:1002A8005629572961290130A3000314450D243E1E
:1002B8008600870123088107C8010130A3002308AD
:1002C800C50710304502031C6A296B294D294808C7
:1002D80003196F2970299429C7014735243E8600E0
:1002E80087010108031D79297A298A294808A3006A
:1002F8004735243E86008701230881000314470DF3
:10030800243E860087018101810A94290130A300D7
:100318002308C70710304702031C93299429712921
:100328000130A3002308C40710304402031C9D2990
:100338009E293E29C801C6010314480D243E8600A3
:1003480087010314460D243E84008501000801023C
:100358000318AF29B029B4294608A3002308C80008
:100368000130A3002308C60710304602031CBD292C
:10037800BE29A0294835243E860087010108A3002C
:100388002308DF005F080319CA29CB29D0295F0A8F
:10039800031DCF29D029D4291030A3002308DF005A
:1003A80008001F3085319F25813120002108B100C8
:1003B8002008B000B4303102793003193002031C30
:1003C800E629E729302AB4013408863134268131F8
:1003D8002000AE002E08B20032085F060319F52986
:1003E800F629FE295F08AE002E08A00034088531E2
:1003F8004A25813101302000AE002E08B4071030A4
:100408003402031C082A092AE8295F08AE002E08CE
:10041800B3001E2A20005508A5005608A600570854
:10042800A70033088331C923813104302000AE008E
:100438002E08B3075F08103EAE00003003180130E5
:10044800AF002F08803A803C031D2C2A2E08330267
:10045800031C2F2A302A0E2A080022008E1423009B
:100468000E152000A701063085319F258231200016
:100478002108A6002008A50007302602D03003195D
:1004880025020318482A492A4E2AFF30A4002408C6
:10049800DC07522A0130A4002408DC075C08803AF3
:1004A800753E031C582A592A612A0A30A4002408D8
:1004B800DC00FC11A701A70A6E2A5C08803A8A3E74
:1004C8000318672A682A6E2A0A30A4002408DC0068
:1004D800FC155E2A27080319722A732A372A230073
:1004E8000E1122008E1008002000AF002F08023ED7
:1004F8008631342682312000A600A7012608A700ED
:10050800A6012608A700A6012608AC002708AD000A
:10051800890D893B8909AE002F08013E86313426B2
:1005280082312000A600A7012608A700A6012608F8
:10053800A9002708AA000030AA1BFF30AB00290831
:10054800AC072A08AD3D2B08AE3D2F08863134266E
:1005580082312000A600A701A8012608AC072708B9
:10056800AD3D2808AE3D2C08A3002D08A4002E0898
:10057800A5000800003020005702031DC92A0030DA
:100588005602031DC92A3D305502031CCC2ACD2A28
:10059800DC2A7C19D02AD12ADC2A7C18D42AD52A2C
:1005A800DC2AFC1CD82AD92ADC2A8531C0258231CC
:1005B800003020005702031DE72A00305602031DB1
:1005C800E72A5B305502031CEA2AEB2A012B7C1D23
:1005D800EE2AEF2A012B7C18F22AF32A012BFC1CA5
:1005E800F62AF72A012B873116278231003020009E
:1005F800D5000030D6000030D700080023008C1446
:100608002000A701013085319F2583312000210872
:10061800A6002008A50007302602D03003192502BD
:100628000318172B182B1D2BFF30A4002408DA07FA
:10063800212B0130A4002408DA075A08803A753EB5
:10064800031C272B282B302B0A30A4002408DA009F
:100658007C12A701A70A3D2B5A08803A8A3E031844
:10066800362B372B3D2BF630A4002408DA007C16F5
:100678002D2B27080319412B422B062B23008C1006
:100688000800FC1D482B492B672B7C184C2B4D2B45
:10069800672B7C1D502B512B672BFC1A542B552B89
:1006A800672BFC1C582B592B5D2B87311627833160
:1006B800602B8731522783312000A001A00A2830FF
:1006C80085311A258331FC196A2B6B2B872B7C19F2
:1006D8006E2B6F2B872BFC1A722B732B872BFC1C12
:1006E800762B772B7B2B8531C02583317E2B873169
:1006F8005727833102302000A6002608A0002830A2
:1007080085311A2583310800873109278331013063
:100718002000D507003003180130D6070030031831
:100728000130D70785317525833164007C1C9D2BEA
:100738009E2BAE2B031022000C1E03140318A52BAE
:10074800A82B22000C16AA2B22000C128731202776
:100758008331C82B8431B82483310130F7007708FE
:10076800FA0703307A02031CBA2BBB2BC82B0310E1
:1007780022000C1E03140318C22BC52B22000C16D2
:10078800C72B22000C12FA0108002000AD00250832
:10079800A8002808A0002D0885314A2583312000AB
:1007A8002508A8002608A9002708AA000830AA36A4
:1007B800A90CA80C890BDB2B2808AB002B08AC0074
:1007C8002C08A8002808A0002D08013E85314A25DC
:1007D800833120002508A8002608A9002708AA00B8
:1007E8001030AA36A90CA80C890BF52B2808AB00E9
:1007F8002B08AC002C08A8002808A0002D08023EF1
:1008080085314A258331080022008E1423000E15F5
:10081800063085319F25843120002108A600200854
:10082800A50023000E1122008E100730200026029A
:10083800D030031925020318222C232C282CFF3032
:10084800A4002408DD072C2C0130A4002408DD07AF
:100858005D08803A753E031C322C332C392C0A3043
:10086800A4002408DD00FC11452C5D08803A8A3E6E
:1008780003183F2C402C452CF630A4002408DD003A
:10088800FC15080023008C14013085319F25843124
:1008980020002108A6002008A50023008C1007309E
:1008A80020002602D0300319250203185C2C5D2C89
:1008B800622CFF30A4002408DB07662C0130A4005A
:1008C8002408DB075B08803A753E031C6C2C6D2CF2
:1008D800732C0A30A4002408DB007C127F2C5B08F0
:1008E800803A8A3E0318792C7A2C7F2CF630A400A3
:1008F8002408DB007C1608008631632684318B17B8
:100908000B17873132278431CC302000A000063005
:10091800A10087314C27843188302000A0000330A3
:10092800A10087314627843187317227843123001B
:100938008E118C100E1124008C1021008C142400B0
:100948000E1121000E158B12FC0122008E120E12C0
:100958000E1021000E10823131228431833102239E
:1009680084312000DE01080022008E1423008E1539
:1009780007308631192684317108F6007008F500B1
:1009880023008E1122008E104E307602203003197B
:1009980075020318D02CD12CD62C0130F400740821
:1009A800FB07E02C9C307602413003197502031CCA
:1009B800DE2CDF2CE02CFB0103307B02031CE52C32
:1009C800E62CE92C8631DC26843108007C1EED2CCF
:1009D800EE2C042DFC1CF12CF22C192DFC107C1D86
:1009E800F62CF72CFA2C8731572784310330200056
:1009F800A6002608A000283085311A258431192D33
:100A0800FC18072D082D192DFC147C1D0C2D0D2DFF
:100A1800102D8531C025843102302000A60026081B
:100A2800A000283085311A25843108002000A30051
:100A3800A401432DA5012C2D8631CC268531F0301B
:100A48000032890B242D01302000A1002108A507C0
:100A580023082502031C312D322D202D03302000C0
:100A6800A2000830A1007730890B382DA10B382D52
:100A7800A20B382D01302000A1002108A40720086E
:100A88002402031C482D492D1E2D08002000A30018
:100A980023009518502D512D4C2D00308B1B013003
:100AA8002000A4008B132308A100A2012108230021
:100AB8009100200022082300920020002008230033
:100AC8009300151555309600AA309600951420000D
:100AD80024186F2D712D8B17722D8B132300151170
:100AE8000800FC1E782D792D9E2D20005E08031924
:100AF8007E2D7F2D822D0130DE029E2D7C1F852DBF
:100B0800862D9A2D22008E126630F1007630F00084
:100B1800C130890B8D2DF00B8D2DF10B8D2D000023
:100B280022000E127C157C13FC129E2D22008E12C0
:100B38007C11FC1208002000A3002308A200A20DCB
:100B4800A20D21001D08200022068339220621005B
:100B58009D001D140630890BAF2D003221009D1415
:100B68009D18B72DB82DB42D1C082000A100210018
:100B78001B082000A000080000302000D50000302D
:100B8800D6000030D70022000E1666302000A100E3
:100B98007630A000C130890BCF2DA00BCF2DA10B33
:100BA800CF2D22008E1614302000A0002008DE0071
:100BB800FC167C17080000302000D5000030D60055
:100BC8000030D70022000E166630F1007630F000B3
:100BD800C130890BED2DF00BED2DF10BED2D000043
:100BE80022008E161430F00070082000DE00FC167B
:100BF8007C1708008431802485318131D5218531E5
:100C08007C18072E082E012E843108248531833163
:100C1800452385318431462485318431EA24853160
:100C28008231BE228531012E2628F3007308F20096
:100C3800F20DF20D21001D087206833972069D001F
:100C48001D140630890B262E003221009D149D1894
:100C58002E2E2F2E2B2E1C08F1001B08F00008004A
:100C68002000A200230015183A2E3B2E362E951888
:100C78003E2E3F2E362E20002208A000A10120087B
:100C88002300910020002108230092001514130866
:100C980008002000A300A201231C532E542E582E16
:100CA8002008A1002108A2070310A00D0310A30C1F
:100CB8002308031D602E612E502E2208080086315D
:100CC8008F268631873139278631873161278631EA
:100CD80087316527863187312A2786318631B926BB
:100CE8008631863179268631080021001508C039F9
:100CF800123895009C30200095009C30A2002208F4
:100D0800E4000B118B167630A0000730A100873164
:100D18004C278631080022008C018E010F302100FB
:100D28008C000C308E000C3023008E0007308C00B5
:100D380024008C018E012100951722009D010800D6
:100D4800200091100130F8070030F93D0030790299
:100D5800643003197802031CB22EB32EB82E8631E4
:100D6800FC268631F801F9010800F93020009B00C3
:100D78009A0191102100911475302000A0000730CD
:100D8800A1008731462786314E3020009C0008009C
:100D98007E1CCF2E092F031022008C1E031403186B
:100DA800D62ED92E22008C16DB2E22008C1208009B
:100DB8007C1422000E148B16FC1CE32EE42EE82E65
:100DC8008531DF258631EB2E87315C278631080097
:100DD8000B11200064089500600861040319F52EC2
:100DE800F62EFB2E61088A0060080A00863108008A
:100DF8002000620863040319022F032F082F6308D9
:100E08008A0062080A0087310800031022008C1E3D
:100E180003140318102F132F22008C16152F2200ED
:100E28008C12080022000E128E1614302000A0002A
:100E38002008DE00FC16080003108B1E031403189C
:100E4800262F282F8B16292F8B12080040302100BF
:100E58009E009B019C017D309D000800813132215C
:100E6800873180313F208731080078302100990090
:100E78009801220096010800640080010131890B65
:100E8800412F003420002108E3002008E200080078
:100E980020002108E1002008E00008007C11220061
:100EA8000E128E1208007C1522000E128E160800F3
:100EB8007C1522000E128E160800163021009700AD
:100EC800080082302200970008003C3400340034C7
:100ED80040349C34003420344E34003420001C1537
:060EE800080008000800EC
:020000040001F9
:08000000FF3FFF3FFF3FFF3F00
:04000E00FC3FFF1E96
:00000001FF
