:020000002D28A9
:100008007E1480318B1E09280A28142872140B1DAF
:100018000E280F281428F1178631192680312A282E
:1000280071170B1F182819282A282100911C1D2830
:100038001E282928F1162000911C23282428292865
:10004800711686312B2680312A28F11571157E10FC
:1000580009002E28F001F101F201F901FA01FB0172
:10006800FC01FD0120308400003085001430863109
:100078009026803134308400003085001F3086316E
:10008800902680317E102000122C0130F400740874
:100098002000D207FB19512852285D28500803195F
:1000A800562857285B2827170130D0025D28A71645
:1000B800FB157B1E6028612874287A1A6428652835
:1000C800702827160130B407003003180130B5072F
:1000D800003003180130B607A71581312D21803172
:1000E800791C772878289B281E302000520603198F
:1000F8007E287F28862827153C305206031D852830
:1001080086288A28A71486313B26803120002714A8
:1001180003107B1F03140030093DF400F40EF40DA6
:10012800F40D7B087406BF397406FB00BC28200058
:10013800A617F91CA028A128BC280130F4007408CF
:10014800CC07261703304C02031CAB28AC28BC286C
:1001580003107B1F03140030093DF400F40EF40D66
:10016800F40D7B087406BF397406FB00A616CC0193
:100178003C305206031DC128C228C82885314625AF
:10018800803120002616D201A6150800791ECD2838
:10019800CE282A2922008E1423008E150630F70057
:1001A8003030890BD528F70BD52800320730853138
:1001B80014258031F700F80177082000D800780866
:1001C800D90023008E1122008E1000302000590221
:1001D8008030031958020318F228F328F928231548
:1001E8000130F7007708CB070829A314003059021B
:1001F8008F3003195802031C0229032908292314E4
:10020800FF30F7007708CB074B08803A7B3E031C8A
:100218000E290F29182986317A2680312000A21745
:100228000430F7007708CB004B08803A843E031867
:100238001E291F2928298631A72680312000221748
:10024800FC30F7007708CB00A2167912200022169E
:100258000800FA1C30293129382920002E15FA1DEA
:100268003629372938298B29FA1C3B293C29542956
:100278002000AE144508460403194329442954298B
:100288000130C5020030C63B2E1445084604031D44
:100298004E294F295429AD17FA127A15FA107C10F5
:1002A80020002D17FA1D59295A298B294108420483
:1002B800031D5F296029702945084604031965292B
:1002C80066296D29FA16AD160130C5020030C63B05
:1002D80075292D16FA127529AD150130C1020030A5
:1002E800C23B2D154308440403197B297C298B291B
:1002F8000130C3020030C43BAD1443084404031D5D
:10030800862987298B292D147A137A16FA11AC17A6
:100318000800003020003602031D982901303502FC
:10032800031D982948303402031C9B299C29BD29A8
:100338002A147A19A029A129BD29A917FA18A529CB
:10034800A629BD292917F91CAA29AB29BD29A9164F
:100358007B1EAF29B029BD298431A4248131FD0138
:10036800FD0A200029160030B4000030B500003026
:10037800B60000303602031DC72901303502031DBF
:10038800C7292D303402031CCA29CB29E529A91510
:100398007A1ACF29D029E5292915FA19D429D52976
:1003A800E529A914F91CD929DA29E52929147B1E7C
:1003B800DE29DF29E52984315F2481312000A8174F
:1003C8007C1428170800F91DEA29EB29102A2000B7
:1003D8002C167919F029F129102AAC15F91CF529E0
:1003E800F629102A2C15FB1DFA29FB29102AAC1412
:1003F8007A19FF29002A102A2C14FA18042A052A27
:10040800102AAB177C18092A0A2A102AFD01FD0AAE
:100418002B178431A4248131791D132A142A362AF2
:100428002000AB16FB1D192A1A2A362A2B16F91991
:100438001E2A1F2A362AAB157A1A232A242A362A74
:100448002B15FA19282A292A362AAB147C182D2AA2
:100458002E2A362A0230F5007508FD002B14843147
:10046800832481312000AA170800F91E3C2A3D2A5E
:100478007E2A22008E140630F5003030890B422A7D
:10048800F50B422A003223000E1121000E15200020
:100498000E1D4F2A502A562AA215FF30F50075085E
:1004A800CA075B2A22150130F5007508CA07220021
:1004B8008E1020004A08803A753E031C642A652A7B
:1004C8006D2A0A30F5007508CA00F911A2147915C9
:1004D8007C2A22144A08803A8A3E0318742A752A0C
:1004E8007C2AF630F5007508CA00F915A1177911AC
:1004F8002117F9122000A1160800791C842A852AE0
:100508009B2A20002615FB1C8A2A8B2A902AA614CF
:10051800863107268231C12A26147D080319952AB7
:10052800962AC12AA5178431E1248231C12A2000E4
:100538002517F91CA02AA12AC12A7D080319A52A72
:10054800A62AAD2AA5164E080319AB2AAC2AAD2A4D
:100558008B2A7D080319B12AB22AB62A25168431B6
:10056800E12482312000A5154E080319BC2ABD2AB2
:10057800C12A251585312D2582312000A5140800B2
:1005880001302000B9070030BA3D3F084004031984
:10059800CE2ACF2ADE2A0130BF020030C03BA41683
:1005A8003F084004031DD92ADA2ADE2A2416863198
:1005B80096268231F91679176430200039063A04F4
:1005C800031DE72AE82AF62A86314B268231823132
:1005D8008122823101302000B7070030B83DA415D0
:1005E800B901BA010A3037063804031DFC2AFD2A6E
:1005F800042B80314920823120002415B701B8012D
:10060800A41408008531CE2583318B170B1785314B
:100618005E2583315A30F5000630F600863189268A
:100628008331C430F5000230F600863182268331EA
:100638008631AC2683318B120030FC000030FB0081
:100648000030FA000030F90022008E120E120E104F
:100658008E108C120C1200302000B4000030B5004F
:100668000030B600C501C601C301C401C101C20101
:10067800BF01C001D101BD01BE01BB01BC01CF0159
:10068800A01608007918492B4C2B22000E144E2B6B
:1006980022000E10FB1B512B542B22008E14562BBC
:1006A80022008E107A1B592B5C2B22000E165E2B13
:1006B80022000E12FA1A612B642B22008E16662B6A
:1006C80022008E127B1B692B6C2B22000C166E2BC2
:1006D80022000C12FA1F712B722B752B2000231786
:1006E8008B167B1C782B792B7E2B8B122000A31664
:1006F80022008C12200023160800791F842B852BDA
:10070800B92B23008C1021008C1420008C1C8D2BFD
:100718008E2B942B21160130F5007508C907992BEB
:10072800A115FF30F5007508C9074908803A753EDC
:10073800031C9F2BA02BA82B0A30F5007508C900B5
:10074800F91321157A14B72BA1144908803A8A3E67
:100758000318AF2BB02BB72BF630F5007508C9007E
:10076800F91721147A10A017791320002017080010
:10077800F91FBF2BC02BD22B20002A17FB1AC52B21
:10078800C62BE62B7B12FB168531B9258331200059
:10079800AA160230F5007508CE00E62B20002A16AE
:1007A8007A1CD72BD82BE62BAA157B1ADC2BDD2B32
:1007B800E62B7B16FB128531B925833120002A15DB
:1007C800CE01CE0AAA140800FA19EB2BEC2B0F2C39
:1007D800200032157A1AF12BF22B0F2CB214FB1DC4
:1007E800F62BF72B0F2CFA157A11FA10FA127A1742
:1007F80032147A30C3000030C4007830C5000030AD
:10080800C6000130C1000030C2000030B400003022
:10081800B5000030B6002000B11708008331062368
:100828008431640083314623843179181C2C1D2CB3
:10083800322C200020168331812384318331BC235C
:1008480084318231392284318131E7218431803108
:10085800CA20843181318D218431152C2000A015C6
:10086800843183248431152C2D28F8002300951811
:100878003E2C3F2C3A2CF2138B1F432CF2178B1370
:100888007808F600F70176082300910077089200AF
:1008980075089300151555309600AA3096009514E2
:1008A800F21B572C592C8B175A2C8B13230015111C
:1008B800200020150800FA19622C632C802C2000D7
:1008C80031177A1A682C692C802CB116FB1D6D2CF7
:1008D8006E2C802CFA157A11FA10FA127A17311642
:1008E8001B30C3000030C4001930C5000030C600FA
:1008F8000130C1000030C2002000B1150800FA1C08
:10090800862C872C8D2C20002F168531B925843113
:10091800A12C7B1E902C912C972C2000AF15833195
:10092800E8238431A12C20002F15FB1E9C2C9D2C24
:10093800A12CAF1485318C25843120002F14080098
:10094800FA1DA72CA82CAE2C2000AE178531B9258E
:100958008431C22C7B1EB12CB22CB82C20002E174F
:100968008431C5248431C22C2000AE16FB1EBD2C58
:10097800BE2CC22C2E168531F52584312000AE15EB
:1009880008007A19C82CC92CDE2C20003115FA1859
:10099800CE2CCF2CDE2CB114FB1DD32CD42CDE2C6A
:1009A800FA147A12FA117A13FA1631147830C5004B
:1009B8000030C6002000B01708007B19E42CE52C95
:1009C800F82C7D080319E92CEA2CEE2C2000B3152D
:1009D8000130FD021E302000BF000030C0007C1135
:1009E800331586319C2684312000B3140800F700A3
:1009F80023001518002D012DFC2C2000A014230025
:100A08009518072D082DFC2C7708F500F6017508B8
:100A1800910076089200151413082000201408008D
:100A2800F6007608F500F50DF50D21001D08750690
:100A3800833975069D001D140630890B212D00325F
:100A480021009D149D18292D2A2D262D1C0872156C
:100A580008007B19302D312D432D20004E08031935
:100A6800362D372D3A2D33140130CE028230BF0097
:100A78000030C0007C15B21786319C2685312000D5
:100A8800321708002000510803194B2D4C2D502D0A
:100A9800A8160130D1025C2D28165108031D552DCA
:100AA800562D5C2DFB14A8151E30F3007308D100D9
:100AB8002815080001308431FB2485312000D80036
:100AC8005808D900590A031D6A2D6B2D722D24145C
:100AD800F501F50A01308431392485312000A31746
:100AE800080021001508C03911389500833020000E
:100AF80095008330F7007708D7000B118B16B330B9
:100B0800F5000630F600863189268531F015080093
:100B18007A1A8F2D902D962D20003017FB19952DC0
:100B2800962D9C2D2000B016791C9B2D9C2DA12D57
:100B380030167A117A167A13FA16B01508002200C0
:100B48008C018E010F3021008C000C308E00083093
:100B580023008E0005308C0024008C018E012100BA
:100B6800951722009D01F21408007A13FA12FA115F
:100B7800FA107A12FB1EC12DC22DC62D2000AF1708
:100B88007A15C92D20002F177A11FB11D001D00A30
:100B9800AF1608008531A325853186317226853147
:100BA8008631A22685318531E2258531863169264F
:100BB800853185317525853172170800633020002D
:100BC8009B009A01911021009114C230F500063063
:100BD800F6008631822685314D3020009C00F114C4
:100BE80008007A19F82DF92D042E20003015FB1D68
:100BF800FE2DFF2D042EB0147A127A157A13FA12EC
:100C08002000301408007C1D0A2E0B2E112E200007
:100C1800B2168431E1248631162E20003216853131
:100C28002D2586312000B21508000B112000570829
:100C38009500530854040319222E232E292E7015CB
:100C480054088A0053080A008631F014080020006E
:100C58009110550856040319322E332E392EF017E9
:100C680056088A0055080A00863170170800FB1CD0
:100C78003E2E3F2E432E2000A814FB10492E2000A4
:100C880028140330F3007308FD00A71708007B1A27
:100C98004E2E4F2E552E20002514FB1E542E552E59
:100CA800582E2000A41779162417080003102200D4
:100CB8008C1E03140318612E642E22008C16662ED7
:100CC80022008C122000A3150800503021009E003D
:100CD8009B019C011D309D00F21508007830210011
:100CE8009900980122009601F21608007914F9106B
:100CF800FC14FB142000D2012C17080076082000F1
:100D0800D6007508D500F016080076082000D40033
:100D18007508D30070140800640080010131890B44
:100D2800912E00347B11FA137B142000331608002F
:100D38007B15FA177B102000B31608000A30210033
:100D48009700721608007910F9142000AC160800F4
:100D580020001C15711408002C34013400342000C4
:100D6800331708008E3400348034003420344E3475
:100D78000E340034A834613420344E347016080020
:100D88001E34013401340134193478340A340A34F5
:060D9800043482341E3415
:020000040001F9
:08000000FF3FFF3FFF3FFF3F00
:04000E00DC3FFF1EB6
:00000001FF
