:020000002628B0
:100008007E1480318B1E09280A2812280B1D0D2802
:100018000E2812288631E426803124280B1F152843
:10002800162824282100911C1A281B28242820007F
:10003800911C1F282028242886319C2680312428BA
:100048007E1009002728F801F901FA01FB01FC01DB
:1000580049308400003085001730873138278031D7
:10006800A030840000308500103087313827803177
:100078007E102000F62D2000BD01C5013430860019
:10008800003087000930B00000301E00B00B49284E
:100098000030BE000030BF000030C0005F08B00074
:1000A8003008C400E72820004408823181228031CA
:1000B80020002308C1002408C2002508C300C60187
:1000C8000330B0003008A00046088631452680314C
:1000D800343E86008701403F20004106031D7A28F0
:1000E800413F4206031D7A28423F4306031D7D28EF
:1000F8007E288C280130B00046083E3E86008701E5
:10010800300881070030C1000030C2000030C30051
:100118000130B0003008C60703304602031C95289A
:100128009628642843084204410403199C289D2802
:10013800E3280130B0003008BD07C8010330B00023
:100148003008A0004808863145268031343E8600B4
:100158008701403F2000B100413FB200423FB30059
:10016800330832043104031DBA28BB28D9284508AE
:10017800B000B101B2010330B3003308A000480851
:10018800863145268031343E8600870120003008BC
:10019800C03F3108C13F3208C23F48083E3E860092
:1001A80087018101810AC501E3280130B0003008C8
:1001B800C80703304802031CE228E328A2280430B9
:1001C800B0003008C4075F08103EB00000300318C4
:1001D8000130B1003108803A803C031DF528300811
:1001E8004402031CF828F92857282000C501C70134
:1001F80045083E3E8600870147083E3E840085014B
:1002080000080102031809290A290E294708B00025
:100218003008C5000130B0003008C7070330470276
:10022800031C17291829FC280330B0003008A00047
:100238004508863145268031343E86008701403F97
:100248002000D500413FD600423FD70002303D0292
:10025800031C2F29302934291030B0003008DF075B
:100268000800243086000030870010302000A300EA
:1002780000301E00A30B3D29B401340886312C261A
:1002880081312000A3002308B8003808031D4D2938
:100298004E294F299729B5013535243E8600870117
:1002A80001083806031D59295A2964290130A30079
:1002B8000314350D243E8600870123088107B80101
:1002C8000130A3002308B50708303502031C6D2947
:1002D8006E29502938080319722973299729B701FB
:1002E8003735243E860087010108031D7C297D29B6
:1002F8008D293808A3003735243E86008701230856
:1003080081000314370D243E860087018101810A8C
:1003180097290130A3002308B70708303702031CC8
:100328009629972974290130A3002308B4070830B7
:100338003402031CA029A1294129B801B6010314DC
:10034800380D243E860087010314360D243E8400B0
:100358008501000801020318B229B329B729360814
:10036800A3002308B8000130A3002308B60708300B
:100378003602031CC029C129A3293835243E86002A
:1003880087010108A3002308DF005F080319CD29AE
:10039800CE29D3295F0A031DD229D329D7291030A2
:1003A800A3002308DF0008001F308531972581311D
:1003B80020002108B4002008B300B430340279309A
:1003C80003193302031CE929EA29392AB701370836
:1003D80086312C2681312000AE002E08B500350864
:1003E8005F060319F829F929012A5F08AE002E08CB
:1003F800A000370885312025813101302000AE006A
:100408002E08B70710303702031C0B2A0C2AEB29D9
:100418005508B0005608B1005708B2005F08AE0092
:100428002E08B600272A20003008A5003108A600AB
:100438003208A70036088331912381310430200027
:10044800AE002E08B6075F080C3EAE000030031859
:100458000130AF002F08803A803C031D352A2E0852
:100468003602031C382A392A172A080022008E145B
:1004780023000E152000A70106308531972582310B
:1004880020002108A6002008A50007302602D03049
:10049800031925020318512A522A572AFF30A400AB
:1004A8002408DC075B2A0130A4002408DC075C0868
:1004B800803A753E031C612A622A6A2A0A30A4001F
:1004C8002408DC00FC11A701A70A772A5C08803AF7
:1004D8008A3E0318702A712A772A0A30A400240851
:1004E800DC00FC15672A270803197B2A7C2A402A86
:1004F80023000E1122008E1008002000AF002F08E4
:10050800023E86312C2682312000A600A70126084B
:10051800A700A6012608A700A6012608AC00270800
:10052800AD00890D893B8909AE002F08013E86314F
:100538002C2682312000A600A7012608A700A601C4
:100548002608A9002708AA000030AA1BFF30AB0024
:100558002908AC072A08AD3D2B08AE3D2F08863187
:100568002C2682312000A600A701A8012608AC0786
:100578002708AD3D2808AE3D2C08A3002D08A4008F
:100588002E08A5000800003020005702031DD22ABB
:1005980000305602031DD22A79305502031CD52A91
:1005A800D62AE52A7C19D92ADA2AE52A7C18DD2AEE
:1005B800DE2AE52AFC1CE12AE22AE52A8531B8254B
:1005C8008231003020005702031DF02A0030560205
:1005D800031DF02A87305502031CF32AF42A0A2B3C
:1005E8007C1DF72AF82A0A2B7C18FB2AFC2A0A2BDE
:1005F800FC1CFF2A002B0A2B87310E278231003082
:100608002000D5000030D6000030D70008002300B5
:100618008C142000A70101308531972583312000F3
:100628002108A6002008A50007302602D0300319AB
:1006380025020318202B212B262BFF30A400240889
:10064800DA072A2B0130A4002408DA075A08803A6E
:10065800753E031C302B312B392B0A30A40024089B
:10066800DA007C12A701A70A462B5A08803A8A3E6C
:1006780003183F2B402B462BF630A4002408DA0041
:100688007C16362B270803194A2B4B2B0F2B2300DC
:100698008C100800FC1D512B522B702B7C18552BED
:1006A800562B702B7C1D592B5A2B702BFC1A5D2B4B
:1006B8005E2B702BFC1C612B622B662B87310E275F
:1006C8008331692B87314A2783312000A001A00A92
:1006D80028308431F0248331FC19732B742B902B30
:1006E8007C19772B782B902BFC1A7B2B7C2B902B4F
:1006F800FC1C7F2B802B842B8531B8258331872BDD
:1007080087314F27833102302000A6002608A00039
:1007180028308431F024833108002000AD002508FA
:10072800A8002808A0002D08853120258331200045
:100738002508A8002608A9002708AA000830AA3614
:10074800A90CA80C890BA32B2808AB002B08AC001C
:100758002C08A8002808A0002D08013E8531202576
:10076800833120002508A8002608A9002708AA0028
:100778001030AA36A90CA80C890BBD2B2808AB0091
:100788002B08AC002C08A8002808A0002D08023E61
:10079800853120258331080022008E1423000E1590
:1007A800063085319725833120002108A6002008CE
:1007B800A50023000E1122008E100730200026020B
:1007C800D030031925020318EA2BEB2BF02BFF304E
:1007D800A4002408DD07F42B0130A4002408DD0759
:1007E8005D08803A753E031CFA2BFB2B012C0A305E
:1007F800A4002408DD00FC110D2C5D08803A8A3E17
:100808000318072C082C0D2CF630A4002408DD0052
:10081800FC15080001302000D5070030031801300E
:10082800D607003003180130D70785314B258431AE
:1008380064007C1C202C212C312C031022000C1E5F
:1008480003140318282C2B2C22000C162D2C220004
:100858000C128731182784314B2C8431BE24843103
:100868000130F7007708FA0703307A02031C3D2CA1
:100878003E2C4B2C031022000C1E03140318452C8D
:10088800482C22000C164A2C22000C12FA010800EF
:1008980023008C14013085319725843120002108EC
:1008A800A6002008A50023008C100730200026028F
:1008B800D030031925020318622C632C682CFF30F2
:1008C800A4002408DB076C2C0130A4002408DB07F3
:1008D8005B08803A753E031C722C732C792C0A3005
:1008E800A4002408DB007C12852C5B08803A8A3E31
:1008F80003187F2C802C852CF630A4002408DB00FC
:100908007C16080086315B2684318B170B178731DC
:100918002A278431C4302000A0000630A100873186
:10092800442784310E302000A0000430A100873114
:100938003E27843187316A27843123008E118C1039
:100948000E1124008C1021008C1424000E1121009B
:100958000E158B12FC0122008E120E120E102100B1
:100968000E1082313A22843183310B2384312000E6
:10097800DE01080022008E1423008E150730863110
:10098800112684317108F6007008F50023008E11D5
:1009980022008E104E30760220300319750203189B
:1009A800D62CD72CDC2C0130F4007408FB07E62C7D
:1009B8009C307602413003197502031CE42CE52CA7
:1009C800E62CFB0103307B02031CEB2CEC2CEF2CF8
:1009D8008631D426843108002000A300A401192DF3
:1009E800A501022D8631C4268431F0300032890BEE
:1009F800FA2C01302000A1002108A50723082502B0
:100A0800031C072D082DF62C03302000A200083007
:100A1800A1007730890B0E2DA10B0E2DA20B0E2DE8
:100A280001302000A1002108A40720082402031C8B
:100A38001E2D1F2DF42C08002000A300230095185C
:100A4800262D272D222D00308B1B01302000A400DD
:100A58008B132308A100A201210823009100200084
:100A68002208230092002000200823009300151577
:100A780055309600AA309600951420002418452D6C
:100A8800472D8B17482D8B13230015110800FC1ECA
:100A98004E2D4F2D742D20005E080319542D552D11
:100AA800582D0130DE02742D7C1F5B2D5C2D702DBE
:100AB80022008E122930F1009630F0007F30890B29
:100AC800632DF00B632DF10B632D000022000E1235
:100AD8007C157C13FC12742D22008E127C11FC12E2
:100AE80008007C1E782D792D882DFC1C7C2D7D2DF1
:100AF800962DFC1008302000A6002608A0002830FB
:100B08008431F0248531962DFC188B2D8C2D962D53
:100B1800FC1404302000A6002608A00028308431E8
:100B2800F024853108002000A3002308A200A20DAC
:100B3800A20D21001D08200022068339220621006B
:100B48009D001D140630890BA72D003221009D142D
:100B58009D18AF2DB02DAC2D1C082000A100210040
:100B68001B082000A000080000302000D50000303D
:100B7800D6000030D70022000E1629302000A10030
:100B88009630A0007F30890BC72DA00BC72DA10B75
:100B9800C72D22008E160A302000A0002008DE0093
:100BA800FC167C17080000302000D5000030D60065
:100BB8000030D70022000E162930F1009630F000E0
:100BC8007F30890BE52DF00BE52DF10BE52D0000AD
:100BD80022008E160A30F00070082000DE00FC1695
:100BE8007C1708008431862485318131D8218531EC
:100BF8007C18FF2D002EF92D8331D02385318331C8
:100C08004E23853184314C248531853175258531D4
:100C18008231C7228531F92D2628F3007308F200A6
:100C2800F20DF20D21001D087206833972069D002F
:100C38001D140630890B1E2E003221009D149D18AC
:100C4800262E272E232E1C08F1001B08F000080072
:100C58002000A20023001518322E332E2E2E9518B0
:100C6800362E372E2E2E20002208A000A1012008A3
:100C78002300910020002108230092001514130876
:100C880008002000A300A201231C4B2E4C2E502E3E
:100C98002008A1002108A2070310A00D0310A30C2F
:100CA8002308031D582E592E482E22080800863185
:100CB8008726863187313127863187315927863112
:100CC80087315D2786318731222786318631B126E3
:100CD8008631863171268631080021001508C03911
:100CE800123895009C30200095009C30A200220804
:100CF800E4000B118B166E30A0000730A10087317D
:100D080044278631080022008C018E010F30210013
:100D18008C000C308E000C3023008E0007308C00C5
:100D280024008C018E012100951722009D010800E6
:100D3800200091100130F8070030F93D00307902A9
:100D4800643003197802031CAA2EAB2EB02E86310C
:100D5800F4268631F801F9010800F93020009B00DB
:100D68009A019110210091146D302000A0000730E5
:100D7800A10087313E2786314E3020009C000800B4
:100D88007E1CC72E012F031022008C1E031403188B
:100D9800CE2ED12E22008C16D32E22008C120800C3
:100DA8007C1422000E148B16FC1CDB2EDC2EE02E8D
:100DB8008531D7258631E32E8731542786310800BF
:100DC8000B11200064089500600861040319ED2EDA
:100DD800EE2EF32E61088A0060080A0086310800AA
:100DE8002000620863040319FA2EFB2E002F630803
:100DF8008A0062080A0086310800031022008C1E4F
:100E080003140318082F0B2F22008C160D2F220015
:100E18008C12080022000E128E160A302000A00044
:100E28002008DE00FC16080003108B1E03140318AC
:100E38001E2F202F8B16212F8B12080040302100E7
:100E48009E009B019C017D309D0008008131352169
:100E5800873180313F2087310800783021009900A0
:100E68009801220096010800640080010131890B75
:100E7800392F003420002108E3002008E200080090
:100E880020002108E1002008E00008007C11220071
:100E98000E128E1208007C1522000E128E16080003
:100EA8007C1522000E128E160800163021009700BD
:100EB800080082302200970008007834003400349B
:100EC80040349C34003420344E34003420001C1547
:060ED800080008000800FC
:020000040001F9
:08000000FF3FFF3FFF3FFF3F00
:04000E00FC3FFF1E96
:00000001FF
