:020000002628B0
:100008007E1480318B1E09280A2812280B1D0D2802
:100018000E28122882314222803124280B1F1528ED
:10002800162824282100911C1A281B28242820007F
:10003800911C1F28202824288131A52180312428BB
:100048007E1009002728F801F901FA01FB01FC01DB
:10005800FD012000A001A101A201A301A401A501A5
:10006800A601A701A801A901AA01AB017E102000E1
:100078003D288131FA2180318B170B173130200050
:10008800B1000230B20082317A228031C8302000BB
:10009800B1000030B2008231742280318231962260
:1000A800803122000E108B12FD010D302000B400AB
:1000B800FB30890B5D28B40B5D2800327D1C652858
:1000C80066287828FD1C69286A28712882316E22E2
:1000D8008031823180228031812880318B208031AB
:1000E800823180228031812881318D218031813196
:1000F80000218031813132218031200024082504FB
:100108000319872888285928640059282628200098
:10011800AB0122000E1607302000B1007D30890B9C
:100128009328B10B932822008E162000B2010310E9
:1001380022000C1E03140318A228A52822000C165E
:10014800A72822000C120D302000B100FB30890BCB
:10015800AB28B10BAB28003201302000B1003108C8
:10016800B20778303202031CBA28BB289B28220029
:100178008E1207302000B1007D30890BC128B10BE9
:10018800C12822000E12080081315421803101302B
:100198002000A0070030A13D0030A23D0030A33D63
:1001A8007D1CD728D828E828031022000C1E031429
:1001B8000318DF28E22822000C16E42822000C127B
:1001C800823120228031FF280130F7007708F907B3
:1001D80003307902031CF128F228FF2803102200BB
:1001E8000C1E03140318F928FC2822000C16FE28FC
:1001F80022000C12F90108002000A31B1129230872
:10020800031D12292208031D12292108031D122982
:10021800B5302002031C1129122931297D1D152909
:1002280016293129FD1C19291A2931298131BB21A7
:10023800813107302000B3007D30890B2129B30BB1
:10024800212980318B20813100302000A30000302B
:10025800A2000030A1000030A000080020008C1C83
:10026800362937293C290130B1003108F8073E29E1
:100278000130F8020B307802031C432944294C2929
:100288007D167D1A48294A29FD144B29FD1053294A
:100298007D127D1A50295229FD145329FD1008009A
:1002A80022008E1407308131732181317108F600E4
:1002B8007008F50076082000A5007508A400220043
:1002C8008E100130F4007408FA0703307A02031C18
:1002D8006E296F2972298231852281310800F30045
:1002E8007308F200F20DF20D21001D087206833921
:1002F80072069D001D1400320032000021009D147A
:100308009D188729882984291C08F1001B08F000FA
:1003180008007D1D902991299B2920000E199529F7
:100328009629A42980318B2081317D11A4292000B0
:100338000E1D9F29A029A4298131BB2181317D155A
:100348000800200091100130A6070030A73D0130B9
:100358002702E93003192602031CB329B429BA2954
:100368008231522281312000A601A7010800200015
:10037800AB01AB0A7D150030A3000030A2000030AD
:10038800A1000030A00022008E16C8300032890B70
:10039800CA2922008E12080021001508C039173812
:1003A80095001630200095001630B3003308B000D1
:1003B8000B119A30B1000230B20082317A228131B9
:1003C800080022008C018E010F3021008C000C30B7
:1003D8008E00083023008E0005308C0024008C012C
:1003E8008E012100951722009D0108008131E52129
:1003F8008131823167228131823192228131823189
:100408000D2281318131D021813182315F228131C8
:100418000800013020009B009A01911021009114DE
:1004280099302000B1000230B2008231742282314A
:100438007F3020009C0008007D1C232A242A302AB3
:10044800031021008C1E031403182B2A2E2A2100C6
:100458008C16302A21008C1208007D1C342A352A7B
:10046800412A031022008C1E031403183C2A3F2A39
:1004780022008C16412A22008C1208000B11200041
:10048800300895002C082D0403194B2A4C2A512AB0
:100498002D088A002C080A008231080020002E0846
:1004A8002F040319582A592A5E2A2F088A002E0871
:1004B8000A0082310800403021009E009B019C0107
:1004C80001309D0008006830210099009801220041
:1004D800960108002000AB017D1122008E1608004D
:1004E80020003208AF003108AE00080020003208B2
:1004F800AD003108AC0008007D1422000E148B16E4
:1005080008007D1422000E148B1608002034A13434
:1005180007340034B4340034003400341630210079
:0E0528009700080020001C15080008000800BD
:020000040001F9
:08000000FF3FFF3FFF3FFF3F00
:04000E00E43FFF1EAE
:00000001FF
