:020000002628B0
:100008007E1480318B1E09280A2812280B1D0D2802
:100018000E28122884312C24803124280B1F1528FF
:10002800162824282100911C1A281B28242820007F
:10003800911C1F282028242884313C24803124281E
:100048007E1009002728F701F801F901FA01FB01E0
:10005800FC01203084000030850015308431822472
:1000680080317E102000822B22008E1423000E1572
:100078002000BB0106302000B7003030890B422831
:10008800B70B4228000006308331672380312000F7
:10009800B700B8013708B9003808BA0000303A028A
:1000A80019300319390203185A285B286028FF30D1
:1000B800B7003708B30764280130B7003708B3071B
:1000C8003308803A753E031C6A286B2873280A3067
:1000D800B7003708B3007711BB01BB0A8028330883
:1000E800803A8A3E031879287A2880280A30B7008F
:1000F8003708B300771570283B080319842885282A
:100108003E2823000E1122008E10080022008E14B3
:1001180023000E1506302000B7003030890B9228D6
:10012800B70B922800000630833167238031200006
:10013800B700B8013708B9003808BA0023000E1113
:1001480022008E10003020003A02193003193902BB
:100158000318AF28B028B528FF30B7003708B40710
:10016800B9280130B7003708B4073408803A753E1B
:10017800031CBF28C028C6280A30B7003708B400B7
:100188007711D2283408803A8A3E0318CC28CD2823
:10019800D228F630B7003708B400771508002300D6
:1001A8008C142000BB01013083316723803120008B
:1001B800B700B8013708B9003808BA0000303A0269
:1001C8001930031939020318EA28EB28F028FF3000
:1001D800B7003708B107F4280130B7003708B1076E
:1001E8003108803A753E031CFA28FB2803290A3097
:1001F800B7003708B100F711BB01BB0A1029310855
:10020800803A8A3E031809290A291029F630B700CE
:100218003708B100F71500293B08031914291529D7
:10022800D72823008C100800771D1B291C293A2980
:1002380077181F2920293A29781D232924293A29A2
:10024800F71A272928293A292000B501B50A2830A4
:100258008231B4228131F71C32293329372984317C
:10026800562481313A2984319424813177193D29E2
:100278003E295A297819412942295A29F71A452924
:1002880046295A2902302000BB003B08B500283017
:100298008231B4228131F71C5229532957298331DD
:1002A800272381315A29843199248131080078190A
:1002B8005E295F296A2901302000A0070030031851
:1002C8000130A107003003180130A20782318222D1
:1002D8008131771C702971298129031022000C1E95
:1002E8000314031878297B2922000C167D29220083
:1002F8000C128431602481319B298131D8218131CC
:100308000130F6007608F90703307902031C8D29BD
:100318008E299B29031022000C1E0314031895290B
:10032800982922000C169A2922000C12F9010800BB
:1003380023008C1401308331672381312000B700FA
:10034800B8013708B9003808BA0023008C1000300B
:1003580020003A021930031939020318B429B529C3
:10036800BA29FF30B7003708B207BE290130B700F5
:100378003708B2073208803A753E031CC429C529DC
:10038800CB290A30B7003708B200F711D72932084D
:10039800803A8A3E0318D129D229D729F630B700E6
:1003A8003708B200F715080022008E1423008E15B6
:1003B8000630F2003030890BDF29F20BDF290032DA
:1003C800073083319B238131F200F3017208F40076
:1003D8007308F50023008E1122008E10003075027C
:1003E8008030031974020318FA29FB29002A013006
:1003F800F2007208FA070A2A003075028F300319D2
:100408007402031C082A092A0A2AFA0103307A020C
:10041800031C0F2A102A132A84311C248131080056
:100428008331B32382318B170B174A302000B50074
:100438000430B60084318E248231F4302000B500B7
:100448000330B6008431882482318431AB24823170
:1004580023008E118C100E1124008C1021008C1496
:1004680024000E1121000E158B12F701F8017710E8
:1004780022008E120E120E1021000E108031D32091
:1004880082318031382082312000AD01AE01080070
:100498002000B800B9017B2ABA01632A84314A24B2
:1004A800823106302000B6003030890B592AB60B4D
:1004B800592A000001302000B6003608BA0738086B
:1004C8003A02031C682A692A522A04302000B7001D
:1004D8000C30B6003330890B6F2AB60B6F2AB70B76
:1004E8006F2A003201302000B6003608B9073508F7
:1004F8003902031C802A812A502A080084316A2480
:100508008231F71E882A892AB32A20002D082E0452
:1005180003198F2A902A952A0130AD020030AE3B8C
:10052800B32A771F982A992AAE2A22008E122930D8
:10053800F1009630F0007F30890BA02AF00BA02A3A
:10054800F10BA02A000022000E12F810781577137C
:10055800F712B32A22008E12F7137811F712080047
:100568002000B800B901DD2ABA01C62A84314A241C
:100578008231F0300032890BBE2A01302000B600EB
:100588003608BA0738083A02031CCB2ACC2ABA2AFA
:1005980003302000B7000830B6007730890BD22A24
:1005A800B60BD22AB70BD22A01302000B600360883
:1005B800B90735083902031CE22AE32AB82A0800D9
:1005C800003020002202031DEF2A00302102031D03
:1005D800EF2A5B302002031CF22AF32A062B781933
:1005E800F62AF72A062BF818FA2AFB2A062B771878
:1005F800FE2AFF2A062BF71C022B032B062B83311E
:10060800272382310800F71D0A2B0B2B1A2BF71C06
:100618000E2B0F2B262BF71002302000BB003B08B7
:10062800B500283082314C228331262BF7181D2B38
:100638001E2B262BF7142000B501B50A283082316D
:100648004C228331080000302000A0000030A100B7
:100658000030A20022000E16F81429302000B6003F
:100668009630B5007F30890B372BB50B372BB60B7F
:10067800372B22008E160A302000AD000030AE0065
:10068800F7167717080000302000A0000030A100FE
:100698000030A20022000E16F8142930F10096301E
:1006A800F0007F30890B562BF00B562BF10B562B95
:1006B800000022008E160A302000AD000030AE0087
:1006C800F716771708002000B6003608B500B50DF4
:1006D800B50D21001D082000350683393506210097
:1006E8009D001D140630890B772B003221009D14C4
:1006F8009D187F2B802B7C2B1C080800823114222C
:10070800833164007718892B8A2B852B81319C21B2
:10071800833183310723833180318A2083318131CA
:10072800182183318231E4228331852B2628F10078
:100738007108F000F00DF00D21001D0870068339D6
:1007480070069D001D140630890BA82B003221006D
:100758009D149D18B02BB12BAD2B1C0808008331BC
:10076800DF23833184317B2483318431A324833193
:100778008431A7248331843173248331843109245B
:1007880083318331C9238331080021001508C0391A
:10079800123895009C30200095009C30B70037082F
:1007A800C0000B118B16B930B5000430B600843187
:1007B8008E248331080022008C018E010F30210025
:1007C8008C000C308E000C3023008E0007308C001B
:1007D80024008C018E012100951722009D0108003C
:1007E80001302000A3070030A43DE8302306033081
:1007F80003192406031D012C022C082C81315B21CE
:1008080083312000A301A4010800633020009B006D
:100818009A01911021009114B8302000B5000430DD
:10082800B6008431882484314D3020009C000800B3
:10083800771422000E148B16F71C232C242C282C3A
:100848008331472384312B2C84319E248431080042
:100858000B112000400895003C083D040319352C75
:10086800362C3B2C3D088A003C080A0084310800DD
:10087800200091103E083F040319432C442C492CB6
:100888003F088A003E080A00843108007E1C4D2C6F
:100898006A2C22008C160630890B502C003222005C
:1008A8008C12080022000E128E160A302000AD00AD
:1008B8000030AE00F716080003108B1E031403184F
:1008C800662C682C8B16692C8B12080022008C165B
:1008D8000630890B6D2C003222008C120800503033
:1008E80021009E009B019C017D309D00080078300E
:1008F80021009900980122009601080064008001F7
:100908000131890B832C003420003608BF003508DC
:10091800BE00080020003608BD003508BC000800ED
:10092800781122000E128E120800781522000E127D
:100938008E160800781522000E128E160800143044
:10094800210097000800823022009700080020004C
:100958001C1508008E3400348034003420344E34A2
:0C096800A834613420344E34080008002C
:020000040001F9
:08000000FF3FFF3FFF3FFF3F00
:04000E00C43FFF1ECE
:00000001FF
