:020000002628B0
:100008007E1480318B1E09280A2812280B1D0D2802
:100018000E28122887311A27803124280B1F15280B
:10002800162824282100911C1A281B28242820007F
:10003800911C1F28202824288631D2268031242884
:100048007E1009002728F801F901FA01FB01FC01DB
:100058004D308400003085001B3087316E27803199
:10006800A030840000308500203087316E27803131
:100078007E1020002C2E2000C401C90134308600D7
:10008800003087000C30B00000301E00B00B49284B
:100098000030C3000030C2000030C1000030C00092
:1000A8006708B0003008C800E728200048088331F6
:1000B8001923803120002308C5002408C60025081C
:1000C800C700CA010330B0003008A0004A088631D2
:1000D8007B268031343E86008701403F200045065C
:1000E800031D7C28413F4606031D7C28423F4706E6
:1000F800031D7F2880288E280130B0004A08403E22
:1001080086008701300881070030C5000030C6002E
:100118000030C7000130B0003008CA0704304A0276
:10012800031C97289828662847084604450403199D
:100138009E289F28E328C401C40ACC010330B000DC
:100148003008A0004C0886317B268031343E86007A
:100158008701403F2000B100413FB200423FB30059
:10016800330832043104031DBA28BB28D9284908AA
:10017800B000B101B2010330B3003308A0004C084D
:1001880086317B268031343E860087012000300886
:10019800C03F3108C13F3208C23F4C08403E86008C
:1001A80087018101810AC901E3280130B0003008C4
:1001B800CC0704304C02031CE228E328A2280430B0
:1001C800B0003008C8076708103EB00000300318B8
:1001D8000130B1003108803A803C031DF528300811
:1001E8004802031CF828F92859282000C901CB0126
:1001F8004908403E860087014B08403E840085013F
:1002080000080102031809290A290E294B08B00021
:100218003008C9000130B0003008CB0704304B0269
:10022800031C17291829FC280330B0003008A00047
:10023800490886317B268031343E86008701403F5D
:100248002000DD00413FDE00423FDF004408031983
:100258002E292F2933291030B0003008E70708006D
:10026800243086000030870020302000A3000030B2
:100278001E00A30B3C29C401440886316226813143
:100288002000A3002308C8004808031D4C294D2955
:100298004E299629C5014535243E86008701010867
:1002A8004806031D5829592963290130A30003145E
:1002B800450D243E8600870123088107C8010130C7
:1002C800A3002308C50710304502031C6C296D29BB
:1002D8004F2948080319712972299629C7014735FA
:1002E800243E860087010108031D7B297C298C296F
:1002F8004808A3004735243E86008701230881006B
:100308000314470D243E860087018101810A96293E
:100318000130A3002308C70710304702031C9529A2
:10032800962973290130A3002308C407103044021A
:10033800031C9F29A0294029C801C6010314480DA0
:10034800243E860087010314460D243E840085015F
:10035800000801020318B129B229B6294608A300EA
:100368002308C8000130A3002308C607103046023E
:10037800031CBF29C029A2294835243E86008701CD
:100388000108A3002308E70067080319CC29CD2931
:10039800D229670A031DD129D229D6291030A300F2
:1003A8002308E70008001F308531CC258131200063
:1003B8002108B1002008B000B430310279300319A7
:1003C8003002031CE829E929322AB40134088631AD
:1003D800622681312000AE002E08B200320867067E
:1003E8000319F729F829002A6708AE002E08A0008B
:1003F800340885317725813101302000AE002E0880
:10040800B40710303402031C0A2A0B2AEA296708A9
:10041800AE002E08B300202A20005D08A5005E0863
:10042800A6005F08A70033088431272481310430EF
:100438002000AE002E08B3076708103EAE0000305B
:1004480003180130AF002F08803A803C031D2E2A84
:100458002E083302031C312A322A102A0800FC1DF8
:10046800362A372A602A7C183A2A3B2A602A7C1DB9
:100478003E2A3F2A602AFC1A422A432A602AFC1C88
:10048800462A472A4B2A8731442782314E2A873108
:1004980080278231F4302000A0000130A1006430B0
:1004A800A2000030A3002830AA002A08A400A50151
:1004B800A50A853148258231FC19632A642A8B2ACA
:1004C8007C19672A682A8B2AFC1A6B2A6C2A8B2AC1
:1004D800FC1C6F2A702A742A8531ED258231772A0F
:1004E800873185278231F4302000A0000130A10037
:1004F8006430A2000030A3002830AA002A08A40013
:100508000230AB002B08A500853148258231080050
:1005180022008E1423000E152000A7010630853115
:10052800CC25823120002108A6002008A50007302C
:100538002602D030031925020318A32AA42AA92ABF
:10054800FF30A4002408E407AD2A0130A4002408E1
:10055800E4076408803A753E031CB32AB42ABC2A0F
:100568000A30A4002408E400FC11A701A70AC92A3C
:100578006408803A8A3E0318C22AC32AC92AF63078
:10058800A4002408E400FC15B92A27080319CD2A79
:10059800CE2A922A23000E1122008E1008007C1EFB
:1005A800D62AD72AF82AFC1CDA2ADB2A182BFC10B0
:1005B8007C1DDF2AE02AE32A873185278231FA3039
:1005C8002000A0000030A1006430A2000030A30089
:1005D8002830AA002A08A4000330AB002B08A50085
:1005E800853148258231182BFC18FB2AFC2A182B48
:1005F800FC147C1D002B012B042B8531ED25823149
:10060800FA302000A0000030A1006430A2000030C1
:10061800A3002830AA002A08A4000230AB002B0847
:10062800A50085314825823108002000AF002F0839
:10063800023E8631622683312000A600A7012608E3
:10064800A700A6012608A700A6012608AC002708CF
:10065800AD00890D893B8909AE002F08013E86311E
:10066800622683312000A600A7012608A700A6015C
:100678002608A9002708AA000030AA1BFF30AB00F3
:100688002908AC072A08AD3D2B08AE3D2F08863156
:10069800622683312000A600A701A8012608AC071E
:1006A8002708AD3D2808AE3D2C08A3002D08A4005E
:1006B8002E08A5000800003020005F02031D6A2BE9
:1006C80000305E02031D6A2B3D305D02031C6D2B5A
:1006D8006E2B7D2B7C19712B722B7D2B7C18752B27
:1006E800762B7D2BFC1C792B7A2B7D2B8531ED25E8
:1006F8008331003020005F02031D882B00305E022A
:10070800031D882B49305D02031C8B2B8C2BA22BDD
:100718007C1D8F2B902BA22B7C18932B942BA22B18
:10072800FC1C972B982BA22B873144278331003050
:100738002000DD000030DE000030DF00080023006C
:100748008C142000A70101308531CC25833120008D
:100758002108A6002008A50007302602D03003197A
:1007680025020318B82BB92BBE2BFF30A400240890
:10077800E207C22B0130A4002408E2076208803A8D
:10078800753E031CC82BC92BD12B0A30A4002408A2
:10079800E2007C12A701A70ADE2B6208803A8A3E93
:1007A8000318D72BD82BDE2BF630A4002408E20040
:1007B8007C16CE2B27080319E22BE32BA72B23004B
:1007C8008C10080087313727833101302000DD077E
:1007D800003003180130DE07003003180130DF074E
:1007E8008531A225833164007C1CFB2BFC2B0C2C4F
:1007F800031022000C1E03140318032C062C2200DD
:100808000C16082C22000C1287314E278331262C17
:100818008531162583310130F7007708FA07033050
:100828007A02031C182C192C262C031022000C1EEB
:1008380003140318202C232C22000C16252C22002C
:100848000C12FA0108002000AD002508A8002808AD
:10085800A0002D0885317725843120002508A800BF
:100868002608A9002708AA000830AA36A90CA80C4F
:10087800890B392C2808AB002B08AC002C08A800E1
:100888002808A0002D08013E8531772584312000F5
:100898002508A8002608A9002708AA001030AA36AB
:1008A800A90CA80C890B532C2808AB002B08AC000A
:1008B8002C08A8002808A0002D08023E85317725BD
:1008C8008431080022008E1423000E15063085316D
:1008D800CC25843120002108A6002008A50023008B
:1008E8000E1122008E10073020002602D030031986
:1008F80025020318802C812C862CFF30A4002408A4
:10090800E5078A2C0130A4002408E5076508803A29
:10091800753E031C902C912C972C0A30A4002408B7
:10092800E500FC11A32C6508803A8A3E03189D2C2B
:100938009E2CA32CF630A4002408E500FC15080022
:1009480023008C1401308531CC2584312000210806
:10095800A6002008A50023008C10073020002602DE
:10096800D030031925020318BA2CBB2CC02CFF3039
:10097800A4002408E307C42C0130A4002408E307DA
:100988006308803A753E031CCA2CCB2CD12C0A3044
:10099800A4002408E3007C12DD2C6308803A8A3E18
:1009A8000318D72CD82CDD2CF630A4002408E3003B
:1009B8007C1608008631912684318B170B178731F6
:1009C80060278431FA302000A0000630A10087316A
:1009D8007A278431E6302000A0000330A100873157
:1009E800742784318731A027843123008E118C101D
:1009F8000E1124008C1021008C1424000E112100EB
:100A08000E158B12FC0122008E120E120E10210000
:100A18000E1082318C2284318331A323843120004B
:100A2800E601080022008E1423008E150730863157
:100A3800472685317108F6007008F50023008E11ED
:100A480022008E104E3076022030031975020318EA
:100A58002E2D2F2D342D0130F4007408FB073E2D68
:100A68009C307602413003197502031C3C2D3D2D44
:100A78003E2DFB0103307B02031C432D442D472DE3
:100A880087310A27853108002000A801702DA901A7
:100A9800592D8631FA268531F0300032890B512DD7
:100AA80001302000A6002608A90724082902031CF3
:100AB8005E2D5F2D4D2D03302000A7000830A600C5
:100AC8007730890B652DA60B652DA70B652D013099
:100AD8002000A6002608A80725082802031C752D53
:100AE800762D4B2D08002000A300230095187D2D9E
:100AF8007E2D792D00308B1B01302000A4008B1334
:100B08002308A100A2012108230091002000220847
:100B1800230092002000200823009300151555306B
:100B28009600AA3096009514200024189C2D9E2D1E
:100B38008B179F2D8B13230015110800FC1EA52D64
:100B4800A62DCB2D200066080319AB2DAC2DAF2D9B
:100B58000130E602CB2D7C1FB22DB32DC72D22000C
:100B68008E121530F1004B30F000BE30890BBA2DD3
:100B7800F00BBA2DF10BBA2D003222000E127C15A3
:100B88007C13FC12CB2D22008E127C11FC12080063
:100B98002000A3002308A200A20DA20D21001D0819
:100BA800200022068339220621009D001D140630EC
:100BB800890BDC2D003221009D149D18E42DE52DB4
:100BC800E12D1C082000A10021001B082000A00026
:100BD800080000302000DD000030DE000030DF00BB
:100BE80022000E1615302000A1004B30A000BE30A8
:100BF800890BFC2DA00BFC2DA10BFC2D0000220065
:100C08008E160A302000A0002008E600FC167C178B
:100C1800080000302000DD000030DE000030DF007A
:100C280022000E161530F1004B30F000BE30890B53
:100C38001B2EF00B1B2EF10B1B2E003222008E16E2
:100C48000A30F00070082000E600FC167C17080047
:100C58008431DE2486318131D72186317C18352EC6
:100C6800362E2F2E84316624863182313322863106
:100C78008431A42486318231D322863183315F23A3
:100C880086312F2E2628F3007308F200F20DF20D9C
:100C980021001D087206833972069D001D14063056
:100CA800890B542E003221009D149D185C2E5D2E58
:100CB800592E1C08F1001B08F00008002000A200B3
:100CC80023001518682E692E642E95186C2E6D2E2B
:100CD800642E20002208A000A10120082300910012
:100CE8002000210823009200151413080800200092
:100CF800A300A201231C812E822E862E2008A1008B
:100D08002108A2070310A00D0310A30C2308031D3C
:100D18008E2E8F2E7E2E220808008631BD26863123
:100D280087316727863187318F2786318731932727
:100D380086318731582786318631E72686318631D4
:100D4800A7268631080021001508C03912389500F9
:100D58009C30200095009C30A2002208EC000B116A
:100D68008B16A430A0000730A10087317A2786317E
:100D7800080022008C018E010F3021008C000C30FD
:100D88008E000C3023008E0007308C0024008C016C
:100D98008E012100951722009D0108002000911066
:100DA8000130F8070030F93D00307902643003194A
:100DB8007802031CE02EE12EE62E87312A278631A1
:100DC800F801F9010800F93020009B009A01911000
:100DD80021009114A3302000A0000730A100873122
:100DE800742786314E3020009C0008007E1CFD2EA2
:100DF800372F031022008C1E03140318042F072F0B
:100E080022008C16092F22008C1208007C14220064
:100E18000E148B16FC1C112F122F162F86310D263F
:100E28008731192F87318A27873108000B11200055
:100E38006C089500680869040319232F242F292FAB
:100E480069088A0068080A008731080020006A08D3
:100E58006B040319302F312F362F6B088A006A086C
:100E68000A0087310800031022008C1E031403189F
:100E78003E2F412F22008C16432F22008C1208008F
:100E880022000E128E160A302000A0002008E6006C
:100E9800FC16080003108B1E03140318542F562F3A
:100EA8008B16572F8B120800403021009E009B01A3
:100EB8009C017D309D0008008131342187318031CB
:100EC8003F208731080078302100990098012200DE
:100ED80096010800640080010131890B6F2F0034EE
:100EE80020002108EB002008EA0008002000210863
:100EF800E9002008E80008007C1122000E128E127A
:100F080008007C1522000E128E1608007C1522009F
:100F18000E128E1608001630210097000800823045
:100F28002200970008003C340034003440349C34DC
:100F3800003420344E34003420001C15080008000A
:020F480008009F
:020000040001F9
:08000000FF3FFF3FFF3FFF3F00
:04000E00FC3FFF1E96
:00000001FF
