:020000001628C0
:100008007E1480318B1A0B1D0B28AC2514280B1F6E
:1000180014282100911C14282000911C14288C25D8
:100028007E1009001728F801F901FA01FB01FC010B
:100038004D308400003085001B300F26A03084002E
:100048000030850020300F267E102000D12D2000A2
:10005800C401C90134308600003087000C30B0007C
:1000680000301E00B00B35280030C3000030C2003D
:100078000030C1000030C0006708B0003008C80078
:100088006708103EB000003003180130B100310895
:10009800803A803C031D5228300848020318D128B2
:1000A80020004808D82120002308C5002408C600DD
:1000B8002508C700CA010330B0003008A0004A086C
:1000C8006925343E86008701403F20004506031D10
:1000D8007328413F4606031D7328423F4706031D08
:1000E80083280130B0004A08403E86008701300866
:1000F80081070030C5000030C6000030C70001305D
:10010800B0003008CA0704304A02031C5F284708B9
:10011800460445040319CC28C401C40ACC010330A1
:10012800B0003008A0004C086925343E86008701DD
:10013800403F2000B100413FB200423FB3003308C6
:1001480032043104031DC4284908B000B101B201CA
:100158000330B3003308A0004C086925343E8600FC
:10016800870120003008C03F3108C13F3208C23F34
:100178004C08403E860087018101810AC901CC28CC
:100188000130B0003008CC0704304C02031C93281F
:100198000430B0003008C80744282000C901CB014A
:1001A8004908403E860087014B08403E840085018F
:1001B800000801020318E4284B08B0003008C90001
:1001C8000130B0003008CB0704304B02031CD428A0
:1001D8000330B0003008A00049086925343E860085
:1001E8008701403F2000DD00413FDE00423FDF0045
:1001F8004408031908001030B0003008E707080069
:10020800243086000030870020302000A300003012
:100218001E00A30B0C29C401440840252000A3009C
:100228002308C800480803195729C5014535243E45
:100238008600870101084806031D2C290130A30008
:100248000314450D243E8600870123088107C80151
:100258000130A3002308C50710304502031C1A29E2
:10026800480803195729C7014735243E86008701E6
:100278000108031D4F294808A3004735243E86007E
:100288008701230881000314470D243E8600870157
:100298008101810A57290130A3002308C7071030BC
:1002A8004702031C38290130A3002308C407103073
:1002B8004402031C1029C801C6010314480D243E3A
:1002C800860087010314460D243E8400850100083A
:1002D8000102031873294608A3002308C800013047
:1002E800A3002308C60710304602031C61294835BD
:1002F800243E860087010108A3002308E700670859
:10030800031D670A031D08001030A3002308E70037
:1003180008001F30D42420002108B1002008B000B4
:10032800B4303102793003193002031C0800B401DB
:10033800340840252000AE002E08B20032086706B7
:100348000319AC296708AE002E08A0003408192448
:1003580001302000AE002E08B40710303402031C10
:100368009C296708AE002E08B3006708103EAE004F
:10037800003003180130AF002F08803A803C031D7D
:10038800C7292E0833020318080020005D08A500BD
:100398005E08A6005F08A700330851220430200039
:1003A800AE002E08B307B9292000AF002F08023E7F
:1003B80040252000A600A7012608A700A6012608B8
:1003C800A700A6012608AC002708AD00890D893BC7
:1003D8008909AE002F08013E40252000A600A7018C
:1003E8002608A700A6012608A9002708AA000030A9
:1003F800AA1BFF30AB002908AC072A08AD3D2B0823
:10040800AE3D2F0840252000A600A701A801260818
:10041800AC072708AD3D2808AE3D2C08A3002D08E1
:10042800A4002E08A500080022008E1423000E1533
:100438002000A7010630D42420002108A6002008A7
:10044800A50007302602D0300319250203182E2AEA
:10045800FF302F2A0130A4002408E4076408803AFA
:10046800753E031C3D2A0A30A4002408E400FC1150
:10047800472A6408803A8A3E0318492AF630A400BD
:100488002408E400FC15A701A70A270803191E2A57
:1004980023000E1122008E1008002000AD00250850
:1004A800A8002808A0002D08192420002508A80065
:1004B8002608A9002708AA000830AA36A90CA80C03
:1004C800890B612A2808AB002B08AC002C08A8006F
:1004D8002808A0002D08013E192420002508A8009E
:1004E8002608A9002708AA001030AA36A90CA80CCB
:1004F800890B792A2808AB002B08AC002C08A80027
:100508002808A0002D08023E19240800FC197C18B0
:10051800A52A7C19FC1AA52AFC1C942ADB25952AF5
:100528002126F4302000A0000130A1006430A20090
:100538000030A3002830AA002A08A400A501A50AB3
:100548004124FC1908007C190800FC1A0800FC1C4E
:10055800AF2AB424B02A2626F4302000A0000130A7
:10056800A1006430A2000030A3002830AA002A08A5
:10057800A4000230AB002B08A5004124080023008A
:100588008C142000A7010130D42420002108A600E3
:100598002008A50007302602D030031925020318C9
:1005A800D72AFF30D82A0130A4002408E2076208BD
:1005B800803A753E031CE62A0A30A4002408E200AB
:1005C8007C12F02A6208803A8A3E0318F22AF63032
:1005D800A4002408E2007C16A701A70A270803192B
:1005E800C72A23008C1008007C1E132BFC1C080053
:1005F800FC107C1D002B2626FA302000A0000030BD
:10060800A1006430A2000030A3002830AA002A0804
:10061800A4000330AB002B08A50041240800FC18F7
:100628000800FC147C1D192BB424FA302000A0000B
:100638000030A1006430A2000030A3002830AA00D6
:100648002A08A4000230AB002B08A50041240800AA
:1006580022008E1423000E150630D4242000210811
:10066800A6002008A50023000E1122008E100730D6
:1006780020002602D030031925020318452BFF302D
:10068800462B0130A4002408E5076508803A753E2A
:10069800031C542B0A30A4002408E500FC110800B0
:1006A8006508803A8A3E03180800F630A40024083A
:1006B800E500FC150800BA2501302000DD070030F0
:1006C80003180130DE07003003180130DF079024DB
:1006D80064007C1C7C2B031022000C1E0314031CDA
:1006E800782B22000C167A2B22000C12EF2508001A
:1006F80069240130F7007708FA0703307A02031CEF
:100708000800031022000C1E0314031C8E2B220069
:100718000C16902B22000C12FA01080023008C14EE
:100728000130D42420002108A6002008A5002300B9
:100738008C10073020002602D03003192502031838
:10074800A72BFF30A82B0130A4002408E307630877
:10075800803A753E031CB62B0A30A4002408E30037
:100768007C1208006308803A8A3E03180800F630B5
:10077800A4002408E3007C160800003020005F0273
:10078800031DCC2B00305E02031DCC2B3D305D02D7
:1007980003187C19D32B7C1CFC1CD32BB4240030ED
:1007A80020005F02031DDE2B00305E02031DDE2BDE
:1007B80049305D02031C08007C1D08007C180800F5
:1007C800FC1C0800DB2500302000DD000030DE00C6
:1007D8000030DF000800F8258B170B1741269D30E5
:1007E8002000A0000530A1001B265F302000A000DB
:1007F8000330A1001526442623008E118C100E11FB
:1008080024008C1021008C1424000E1121000E15D8
:100818008B12FC0122008E120E120E1021000E10F7
:100828001822C3222000E60108002000A3002300AC
:1008380095181B2C00308B1B01302000A4008B1353
:100848002308A100A201210823009100200022080A
:10085800230092002000200823009300151555302E
:100868009600AA30960095142000241C3D2C8B1766
:100878003E2C8B132300151108002000A801250821
:10088800280203180800A901240829020318572C74
:100898009D25F0300032890B4E2C01302000A60037
:1008A8002608A907482C03302000A7000830A60016
:1008B8007730890B5D2CA60B5D2CA70B5D2C0130C6
:1008C8002000A6002608A807432C22008E14230027
:1008D8008E15073012257108F6007008F500230000
:1008E8008E1122008E104E307602203003197502C8
:1008F8000318832C0130F4007408FB078A2C9C3001
:1009080076024130031975020318FB0103307B029C
:10091800031C0800E5250800FC1E080020006608E6
:100928000319992C0130E60208007C1FAF2C220025
:100938008E121530F1004B30F000BE30890BA22C1E
:10094800F00BA22CF10BA22C003222000E127C1507
:100958007C13FC12080022008E127C11FC12080085
:1009680000302000DD000030DE000030DF00220013
:100978000E1615302000A1004B30A000BE30890BA8
:10098800C32CA00BC32CA10BC32C000022008E1675
:100998000A302000A0002008E600FC167C1708009A
:1009A8002000A3002308A200A20DA20D21001D080B
:1009B800200022068339220621009D001D140630DE
:1009C800890BE42C003221009D149D18E92C1C0889
:1009D8002000A10021001B082000A0000800003012
:1009E8002000DD000030DE000030DF0022000E169F
:1009F8001530F1004B30F000BE30890B012DF00BA3
:100A0800012DF10B012D003222008E160A30F00064
:100A180070082000E600FC167C170800F300730835
:100A2800F200F20DF20D21001D08720683397206DC
:100A38009D001D140630890B1F2D003221009D14C6
:100A48009D18242D1C08F1001B08F0000800220046
:100A58008C018E010F3021008C000C308E000C3080
:100A680023008E0007308C0024008C018E012100A9
:100A7800951722009D0108002000A20023001518E8
:100A8800422D9518422D20002208A000A10120081F
:100A98002300910020002108230092001514130858
:100AA800080021001508C039123895009C30200034
:100AB80095009C30A2002208EC000B118B164830E0
:100AC800A0000630A1001B2608002000A300A201F8
:100AD800231C722D2008A1002108A2070310A00DD5
:100AE8000310A30C2308031D6C2D22080800F930FD
:100AF80020009B009A01911021009114473020009A
:100B0800A0000630A10015264E3020009C000800E9
:100B1800200091100130F8070030F93D00307902CB
:100B2800643003197802031C0800C625F801F9018E
:100B380008007E1CA02DBA2D031022008C1E031461
:100B4800031CA92D22008C16080022008C12080014
:100B58000B1120006C089500680869040319080047
:100B680069088A0068080A00853108000310220015
:100B78008C1E0314031CC32D22008C1608002200AF
:100B88008C12080020006A086B04031908006B081F
:100B98008A006A080A0085310800EF238D217C1835
:100BA800D22D2C238A229223F822C123D22D22006F
:100BB8000E128E160A302000A0002008E600FC164F
:100BC80008007C1422000E148B16FC1CED2DF32457
:100BD80008002B26080003108B1E0314031CF62D97
:100BE8008B1608008B1208002B2508263026342681
:100BF80000267B2555250800403021009E009B01DA
:100C08009C017D309D0008007830210099009801F2
:100C1800220096010800640080010131890B102E22
:100C2800003420002108EB002008EA00080020001A
:100C38002108E9002008E80008007C1122000E12B3
:100C48008E1208007C1522000E128E1608007C15E4
:100C580022000E128E160800163021009700080098
:100C680082302200970008003C34003400344034BD
:100C78009C34003420344E34003404212B200800E6
:0A0C880020001C15080008000800F9
:020000040001F9
:08000000FF3FFF3FFF3FFF3F00
:04000E00FC3FFF1E96
:00000001FF
