:020000001628C0
:100008007E1480318B1A0B1D0B28782514280B1FA2
:1000180014282100911C14282000911C142859250B
:100028007E1009001728F801F901FA01FB01FC010B
:100038004D308400003085001B30D925A030840065
:10004800003085002030D9257E102000922DC40173
:10005800C90134308600003087000C30B000003011
:100068001E00B00B34280030C3000030C20000303E
:10007800C1000030C0006708B0003008C800670839
:10008800103EB000003003180130B1003108803A4A
:10009800803C031D5128300848020318CC28200052
:1000A8004808D0212308C5002408C6002508C70031
:1000B800CA010330B0003008A0004A083825343E91
:1000C80086008701403F4506031D7028413F4606CC
:1000D800031D7028423F4706031D80280130B000E9
:1000E8004A08403E86008701300881070030C50075
:1000F8000030C6000030C7000130B0003008CA0721
:1001080004304A02031C5D284708460445040319C5
:10011800C728C401C40ACC010330B0003008A000CD
:100128004C083825343E86008701403FB100413FE6
:10013800B200423FB300330832043104031DBF2824
:100148004908B000B101B2010330B3003308A00080
:100158004C083825343E860087013008C03F3108F6
:10016800C13F3208C23F4C08403E860087018101EA
:10017800810AC901C7280130B0003008CC07043013
:100188004C02031C90280430B0003008C8074328EC
:100198002000C901CB014908403E860087014B0871
:1001A800403E84008501000801020318DF284B083F
:1001B800B0003008C9000130B0003008CB07043067
:1001C8004B02031CCF280330B0003008A0004908B8
:1001D8003825343E86008701403FDD00413FDE0080
:1001E800423FDF004408031908001030B00030080F
:1001F800E707080024308600003087002030A3007D
:1002080000301E00A30B0529C40144082425200042
:10021800A3002308C800480803195029C50145351B
:10022800243E8600870101084806031D2529013060
:10023800A3000314450D243E860087012308810787
:10024800C8010130A3002308C50710304502031C6C
:100258001329480803195029C7014735243E860049
:1002680087010108031D48294808A3004735243E93
:1002780086008701230881000314470D243E860069
:1002880087018101810A50290130A3002308C7078B
:1002980010304702031C31290130A3002308C4078A
:1002A80010304402031C0929C801C6010314480D73
:1002B800243E860087010314460D243E84008501F0
:1002C8000008010203186C294608A3002308C80087
:1002D8000130A3002308C60710304602031C5A2920
:1002E8004835243E860087010108A3002308E7005B
:1002F8006708031D670A031D08001030A3002308C0
:10030800E70008001F3085242108AE002008AD0052
:10031800B4302E02793003192D02031C0800B101F4
:10032800310824252000AB002B08AF002F086706F2
:100338000319A4296708AB002B08A0003108CD23B6
:1003480001302000AB002B08B10710303102031C2C
:1003580094296708AB002B08B0006708103EAB0073
:10036800003003180130AC002C08803A803C031D93
:10037800BF292B0830020318080020005D08A500DB
:100388005E08A6005F08A700300865240430200036
:10039800AB002B08B007B129AF002F08023E242577
:1003A8002000A600A7012608A700A6012608A70086
:1003B800A6012608AC002708AD00890D893B8909EC
:1003C800AE002F08013E24252000A600A70126081C
:1003D800A700A6012608A9002708AA000030AA1B22
:1003E800FF30AB002908AC072A08AD3D2B08AE3D0D
:1003F8002F0824252000A600A701A8012608AC077D
:100408002708AD3D2808AE3D2C08A3002D08A40000
:100418002E08A5000800FC197C182A2A7C19FC1A49
:100428002A2AFC1C192A9C251A2AE925F4302000BE
:10043800A0000130A1006430A2000030A3002830E1
:10044800AA002A08A400A501A50AF423FC1908009B
:100458007C190800FC1A0800FC1C342AA424352A3C
:10046800EE25F4302000A0000130A1006430A20085
:100478000030A3002830AA002A08A4000230AB00EC
:100488002B08A500F423080022008E1423000E1563
:100498002000A701063085242108A6002008A50011
:1004A80007302602D0300319250203185D2AFF30D1
:1004B8005E2A0130A4002408E4076408803A753EE7
:1004C800031C6C2A0A30A4002408E400FC11762AD4
:1004D8006408803A8A3E0318782AF630A400240873
:1004E800E400FC15A701A70A270803194E2A2300D0
:1004F8000E1122008E10080023008C142000A70182
:10050800013085242108A6002008A500073026020E
:10051800D030031925020318932AFF30942A01309A
:10052800A4002408E2076208803A753E031CA22A48
:100538000A30A4002408E2007C12AC2A6208803A3F
:100548008A3E0318AE2AF630A4002408E2007C167E
:10055800A701A70A27080319842A23008C1008007A
:100568007C1ECF2AFC1C0800FC107C1DBC2AEE2532
:10057800FA302000A0000030A1006430A200003052
:10058800A3002830AA002A08A4000330AB002B08D7
:10059800A500F4230800FC180800FC147C1DD52ACB
:1005A800A424FA30A0000030A1006430A20000307A
:1005B800A3002830AA002A08A4000230AB002B08A8
:1005C800A500F4230800862501302000DD0700304F
:1005D80003180130DE07003003180130DF0742241A
:1005E80064007C1C042B031022000C1E0314031C43
:1005F800002B22000C16022B22000C12B02508003A
:100608001B240130F7007708FA0703307A02031C2D
:100618000800031022000C1E0314031C162B2200D2
:100628000C16182B22000C12FA01080022008E1456
:1006380023000E15063085242108A6002008A500F1
:1006480023000E1122008E10073020002602D03021
:10065800031925020318322BFF30332B0130A40075
:100668002408E5076508803A753E031C412B0A30CB
:10067800A4002408E500FC1108006508803A8A3EB9
:1006880003180800F630A4002408E500FC1508004B
:1006980023008C14013085242108A6002008A50019
:1006A80023008C10073020002602D03003192502C1
:1006B8000318602BFF30612B0130A4002408E307E6
:1006C8006308803A753E031C6F2B0A30A400240887
:1006D800E3007C1208006308803A8A3E0318080089
:1006E800F630A4002408E3007C16080000305F02FE
:1006F800031D842B00305E02031D842B3D305D02F8
:1007080003187C198B2B7C1CFC1C8B2BA42400301D
:100718005F02031D952B00305E02031D952B4930A7
:100728005D02031C08007C1D08007C180800FC1CE6
:1007380008009C250030DD000030DE000030DF00BE
:100748000800C2258B170B1708266930A000053052
:10075800A100E425E730A0000230A100DF250B2628
:1007680023008E118C100E1124008C1021008C1483
:1007780024000E1121000E158B12FC0122008E128E
:100788000E120E1021000E10482280222000E601D1
:100798000800A30023009518CE2B00308B1B0130D6
:1007A8002000A4008B132308A100A2012108230024
:1007B8009100200022082300920020002008230036
:1007C8009300151555309600AA3096009514200010
:1007D800241CF02B8B17F12B8B1323001511080009
:1007E800A8012508280203180800A90124082902DD
:1007F8000318092C6925F0300032890B002C0130D0
:100808002000A6002608A907FA2B03302000A7001D
:100818000830A6007730890B0F2CA60B0F2CA70BDE
:100828000F2C01302000A6002608A807F52B22006F
:100838008E1423008E150730E2247108F600700824
:10084800F50023008E1122008E104E3076022030E3
:10085800031975020318352C0130F4007408FB07DE
:100868003C2C9C3076024130031975020318FB01B9
:1008780003307B02031C0800B9250800FC1E080091
:10088800660803194A2C0130E60208007C1F602C18
:1008980022008E121530F1004B30F000BE30890B6B
:1008A800532CF00B532CF10B532C003222000E1258
:1008B8007C157C13FC12080022008E127C11FC129D
:1008C8000800AA002508A8002808A0002A08CD23A7
:1008D80020002608A8002808A9002908A800280838
:1008E800A0002A08013ECD2320002708A8002808D8
:1008F800A9002908A8002808A0002A08023ECD233C
:1009080008002000A3002308A200A20DA20D2100C8
:100918001D08200022068339220621009D001D148F
:100928000630890B952C003221009D149D189A2CB5
:100938001C082000A10021001B082000A0000800BE
:100948000030DD000030DE000030DF0022000E162F
:1009580015302000A1004B30A000BE30890BB22C0E
:10096800A00BB22CA10BB22C000022008E160A306C
:100978002000A0002008E600FC167C1708000030C4
:100988002000DD000030DE000030DF0022000E16FF
:100998001530F1004B30F000BE30890BD12CF00B34
:1009A800D12CF10BD12C003222008E160A30F00027
:1009B80070082000E600FC167C170800F300730896
:1009C800F200F20DF20D21001D087206833972063D
:1009D8009D001D140630890BEF2C003221009D1458
:1009E8009D18F42C1C08F1001B08F00008002200D8
:1009F8008C018E010F3021008C000C308E000C30E1
:100A080023008E0007308C0024008C018E01210009
:100A1800951722009D01080021001508C0391238D9
:100A280095009C30200095009C30A2002208EC0024
:100A38000B118B160E30A0000630A100E42508002B
:100A4800A20023001518252D9518252D2000220811
:100A5800A000A10120082300910020002108230004
:100A68009200151413080800A300A201231C402DAE
:100A78002008A1002108A2070310A00D0310A30C51
:100A88002308031D3A2D22080800F93020009B0096
:100A98009A019110210091140D302000A000063019
:100AA800A100DF254E309C00080091100130F807A6
:100AB8000030F93D00307902643003197802031CD4
:100AC8000800A625F801F90108007E1C6C2D862D6A
:100AD800031022008C1E0314031C752D22008C1693
:100AE800080022008C1208000B1120006C089500E9
:100AF800680869040319080069088A0068080A0078
:100B080085310800031022008C1E0314031C8F2D4E
:100B180022008C16080022008C120800A5238621CA
:100B28007C18932D1A230F224C23B4227A23932D59
:100B380022000E128E160A302000A0002008E600BF
:100B4800FC1608006A086B04031908006B088A0081
:100B58006A080A008531080003108B1E0314031C61
:100B6800B72D8B1608008B1208007C140E148B16F8
:100B7800FC1CC02DC3240800FB250800FB24D2253B
:100B8800F325F725CA2549251025080040302100FE
:100B98009E009B019C017D309D000800783021005B
:100BA8009900980122009601080064008001013133
:100BB800890BDA2D00342108EB002008EA00080030
:100BC8002108E9002008E80008007C1122000E1224
:100BD8008E1208007C1522000E128E1608001630A0
:100BE80021009700080082302200970008007C1539
:100BF8000E128E1608003C340034003440349C3405
:100C0800003420344E340034FE202B2008001C15FC
:060C1800080008000800BE
:020000040001F9
:08000000FF3FFF3FFF3FFF3F00
:04000E00FC3FFF1E96
:00000001FF
